{
  "contractName": "PoolFactory",
  "abi": [
    {
      "inputs": [
        {
          "internalType": "address",
          "name": "poolToken_",
          "type": "address"
        },
        {
          "internalType": "address",
          "name": "tokenCompound_",
          "type": "address"
        },
        {
          "internalType": "address",
          "name": "poolImplementation_",
          "type": "address"
        },
        {
          "internalType": "address",
          "name": "_random",
          "type": "address"
        }
      ],
      "stateMutability": "nonpayable",
      "type": "constructor"
    },
    {
      "anonymous": false,
      "inputs": [
        {
          "indexed": true,
          "internalType": "address",
          "name": "previousOwner",
          "type": "address"
        },
        {
          "indexed": true,
          "internalType": "address",
          "name": "newOwner",
          "type": "address"
        }
      ],
      "name": "OwnershipTransferred",
      "type": "event"
    },
    {
      "anonymous": false,
      "inputs": [
        {
          "indexed": false,
          "internalType": "address",
          "name": "pool",
          "type": "address"
        },
        {
          "indexed": false,
          "internalType": "uint256",
          "name": "startDate",
          "type": "uint256"
        },
        {
          "indexed": false,
          "internalType": "uint256",
          "name": "participationEndDate",
          "type": "uint256"
        },
        {
          "indexed": false,
          "internalType": "uint256",
          "name": "endDate",
          "type": "uint256"
        },
        {
          "indexed": false,
          "internalType": "uint256",
          "name": "participationAmount",
          "type": "uint256"
        }
      ],
      "name": "PoolCreated",
      "type": "event"
    },
    {
      "inputs": [],
      "name": "owner",
      "outputs": [
        {
          "internalType": "address",
          "name": "",
          "type": "address"
        }
      ],
      "stateMutability": "view",
      "type": "function",
      "constant": true
    },
    {
      "inputs": [],
      "name": "poolImplementation",
      "outputs": [
        {
          "internalType": "address",
          "name": "",
          "type": "address"
        }
      ],
      "stateMutability": "view",
      "type": "function",
      "constant": true
    },
    {
      "inputs": [],
      "name": "poolToken",
      "outputs": [
        {
          "internalType": "address",
          "name": "",
          "type": "address"
        }
      ],
      "stateMutability": "view",
      "type": "function",
      "constant": true
    },
    {
      "inputs": [
        {
          "internalType": "uint256",
          "name": "",
          "type": "uint256"
        }
      ],
      "name": "registry",
      "outputs": [
        {
          "internalType": "address",
          "name": "",
          "type": "address"
        }
      ],
      "stateMutability": "view",
      "type": "function",
      "constant": true
    },
    {
      "inputs": [],
      "name": "renounceOwnership",
      "outputs": [],
      "stateMutability": "nonpayable",
      "type": "function"
    },
    {
      "inputs": [],
      "name": "tokenCompound",
      "outputs": [
        {
          "internalType": "address",
          "name": "",
          "type": "address"
        }
      ],
      "stateMutability": "view",
      "type": "function",
      "constant": true
    },
    {
      "inputs": [
        {
          "internalType": "address",
          "name": "newOwner",
          "type": "address"
        }
      ],
      "name": "transferOwnership",
      "outputs": [],
      "stateMutability": "nonpayable",
      "type": "function"
    },
    {
      "inputs": [
        {
          "internalType": "uint256",
          "name": "startDate",
          "type": "uint256"
        },
        {
          "internalType": "uint256",
          "name": "participationEndDate",
          "type": "uint256"
        },
        {
          "internalType": "uint256",
          "name": "endDate",
          "type": "uint256"
        },
        {
          "internalType": "uint256",
          "name": "participationAmount",
          "type": "uint256"
        },
        {
          "internalType": "bool",
          "name": "isLottery",
          "type": "bool"
        }
      ],
      "name": "createPool",
      "outputs": [],
      "stateMutability": "nonpayable",
      "type": "function"
    },
    {
      "inputs": [],
      "name": "registryLength",
      "outputs": [
        {
          "internalType": "uint256",
          "name": "",
          "type": "uint256"
        }
      ],
      "stateMutability": "view",
      "type": "function",
      "constant": true
    },
    {
      "inputs": [
        {
          "internalType": "address",
          "name": "pool",
          "type": "address"
        }
      ],
      "name": "participate",
      "outputs": [],
      "stateMutability": "nonpayable",
      "type": "function"
    },
    {
      "inputs": [
        {
          "internalType": "address",
          "name": "pool",
          "type": "address"
        }
      ],
      "name": "liquidate",
      "outputs": [],
      "stateMutability": "nonpayable",
      "type": "function"
    },
    {
      "inputs": [
        {
          "internalType": "address",
          "name": "pool",
          "type": "address"
        }
      ],
      "name": "claim",
      "outputs": [],
      "stateMutability": "nonpayable",
      "type": "function"
    }
  ],
  "bytecode": "0x60806040523480156200001157600080fd5b506040516200159338038062001593833981810160405281019062000037919062000214565b600062000049620001f560201b60201c565b9050806000806101000a81548173ffffffffffffffffffffffffffffffffffffffff021916908373ffffffffffffffffffffffffffffffffffffffff1602179055508073ffffffffffffffffffffffffffffffffffffffff16600073ffffffffffffffffffffffffffffffffffffffff167f8be0079c531659141344cd1fd0a4f28419497f9722a3daafe3b4186f6b6457e060405160405180910390a35083600160006101000a81548173ffffffffffffffffffffffffffffffffffffffff021916908373ffffffffffffffffffffffffffffffffffffffff16021790555082600260006101000a81548173ffffffffffffffffffffffffffffffffffffffff021916908373ffffffffffffffffffffffffffffffffffffffff16021790555081600360006101000a81548173ffffffffffffffffffffffffffffffffffffffff021916908373ffffffffffffffffffffffffffffffffffffffff16021790555080600460006101000a81548173ffffffffffffffffffffffffffffffffffffffff021916908373ffffffffffffffffffffffffffffffffffffffff16021790555050505050620002ce565b600033905090565b6000815190506200020e81620002b4565b92915050565b600080600080608085870312156200022b57600080fd5b60006200023b87828801620001fd565b94505060206200024e87828801620001fd565b93505060406200026187828801620001fd565b92505060606200027487828801620001fd565b91505092959194509250565b60006200028d8262000294565b9050919050565b600073ffffffffffffffffffffffffffffffffffffffff82169050919050565b620002bf8162000280565b8114620002cb57600080fd5b50565b6112b580620002de6000396000f3fe608060405234801561001057600080fd5b50600436106100d45760003560e01c80638da5cb5b11610081578063cbdf382c1161005b578063cbdf382c146101dd578063cefa7799146101fb578063f2fde38b14610219576100d4565b80638da5cb5b14610185578063b67de008146101a3578063b91038c7146101c1576100d4565b80635893253c116100b25780635893253c1461012f578063715018a61461015f5780638091fbac14610169576100d4565b806318e7c3c0146100d95780631e83409a146100f75780632f86556814610113575b600080fd5b6100e1610235565b6040516100ee9190611125565b60405180910390f35b610111600480360381019061010c9190610e37565b610242565b005b61012d60048036038101906101289190610e37565b610332565b005b61014960048036038101906101449190610e89565b610634565b6040516101569190610fe8565b60405180910390f35b610167610673565b005b610183600480360381019061017e9190610edb565b6107ad565b005b61018d6109bd565b60405161019a9190610fe8565b60405180910390f35b6101ab6109e6565b6040516101b89190610fe8565b60405180910390f35b6101db60048036038101906101d69190610e37565b610a0c565b005b6101e5610afc565b6040516101f29190610fe8565b60405180910390f35b610203610b22565b6040516102109190610fe8565b60405180910390f35b610233600480360381019061022e9190610e37565b610b48565b005b6000600580549050905090565b600460009054906101000a900473ffffffffffffffffffffffffffffffffffffffff1673ffffffffffffffffffffffffffffffffffffffff1663f29886946040518163ffffffff1660e01b8152600401600060405180830381600087803b1580156102ac57600080fd5b505af11580156102c0573d6000803e3d6000fd5b505050508073ffffffffffffffffffffffffffffffffffffffff16631e83409a336040518263ffffffff1660e01b81526004016102fd9190610fe8565b600060405180830381600087803b15801561031757600080fd5b505af115801561032b573d6000803e3d6000fd5b5050505050565b61033a610cf1565b73ffffffffffffffffffffffffffffffffffffffff166103586109bd565b73ffffffffffffffffffffffffffffffffffffffff16146103ae576040517f08c379a00000000000000000000000000000000000000000000000000000000081526004016103a590611105565b60405180910390fd5b60008190508073ffffffffffffffffffffffffffffffffffffffff166325698d896040518163ffffffff1660e01b815260040160206040518083038186803b1580156103f957600080fd5b505afa15801561040d573d6000803e3d6000fd5b505050506040513d601f19601f820116820180604052508101906104319190610e60565b156105cf578073ffffffffffffffffffffffffffffffffffffffff16636b19852c600460009054906101000a900473ffffffffffffffffffffffffffffffffffffffff1673ffffffffffffffffffffffffffffffffffffffff16632530c9058473ffffffffffffffffffffffffffffffffffffffff16634158506a6040518163ffffffff1660e01b815260040160206040518083038186803b1580156104d657600080fd5b505afa1580156104ea573d6000803e3d6000fd5b505050506040513d601f19601f8201168201806040525081019061050e9190610eb2565b6040518263ffffffff1660e01b815260040161052a9190611125565b602060405180830381600087803b15801561054457600080fd5b505af1158015610558573d6000803e3d6000fd5b505050506040513d601f19601f8201168201806040525081019061057c9190610eb2565b6040518263ffffffff1660e01b81526004016105989190611125565b600060405180830381600087803b1580156105b257600080fd5b505af11580156105c6573d6000803e3d6000fd5b50505050610630565b8073ffffffffffffffffffffffffffffffffffffffff166328a070256040518163ffffffff1660e01b8152600401600060405180830381600087803b15801561061757600080fd5b505af115801561062b573d6000803e3d6000fd5b505050505b5050565b6005818154811061064457600080fd5b906000526020600020016000915054906101000a900473ffffffffffffffffffffffffffffffffffffffff1681565b61067b610cf1565b73ffffffffffffffffffffffffffffffffffffffff166106996109bd565b73ffffffffffffffffffffffffffffffffffffffff16146106ef576040517f08c379a00000000000000000000000000000000000000000000000000000000081526004016106e690611105565b60405180910390fd5b600073ffffffffffffffffffffffffffffffffffffffff1660008054906101000a900473ffffffffffffffffffffffffffffffffffffffff1673ffffffffffffffffffffffffffffffffffffffff167f8be0079c531659141344cd1fd0a4f28419497f9722a3daafe3b4186f6b6457e060405160405180910390a360008060006101000a81548173ffffffffffffffffffffffffffffffffffffffff021916908373ffffffffffffffffffffffffffffffffffffffff160217905550565b6107b5610cf1565b73ffffffffffffffffffffffffffffffffffffffff166107d36109bd565b73ffffffffffffffffffffffffffffffffffffffff1614610829576040517f08c379a000000000000000000000000000000000000000000000000000000000815260040161082090611105565b60405180910390fd5b6000610856600360009054906101000a900473ffffffffffffffffffffffffffffffffffffffff16610cf9565b90508073ffffffffffffffffffffffffffffffffffffffff166340141773600160009054906101000a900473ffffffffffffffffffffffffffffffffffffffff16600260009054906101000a900473ffffffffffffffffffffffffffffffffffffffff1689898989896040518863ffffffff1660e01b81526004016108e19796959493929190611003565b600060405180830381600087803b1580156108fb57600080fd5b505af115801561090f573d6000803e3d6000fd5b505050506005819080600181540180825580915050600190039060005260206000200160009091909190916101000a81548173ffffffffffffffffffffffffffffffffffffffff021916908373ffffffffffffffffffffffffffffffffffffffff1602179055507f17bb6b49ca5e4d3f819d7bacfe56be4359e1e32146032ac3b9163de791b6dac481878787876040516109ad959493929190611072565b60405180910390a1505050505050565b60008060009054906101000a900473ffffffffffffffffffffffffffffffffffffffff16905090565b600260009054906101000a900473ffffffffffffffffffffffffffffffffffffffff1681565b600460009054906101000a900473ffffffffffffffffffffffffffffffffffffffff1673ffffffffffffffffffffffffffffffffffffffff1663f29886946040518163ffffffff1660e01b8152600401600060405180830381600087803b158015610a7657600080fd5b505af1158015610a8a573d6000803e3d6000fd5b505050508073ffffffffffffffffffffffffffffffffffffffff1663b91038c7336040518263ffffffff1660e01b8152600401610ac79190610fe8565b600060405180830381600087803b158015610ae157600080fd5b505af1158015610af5573d6000803e3d6000fd5b5050505050565b600160009054906101000a900473ffffffffffffffffffffffffffffffffffffffff1681565b600360009054906101000a900473ffffffffffffffffffffffffffffffffffffffff1681565b610b50610cf1565b73ffffffffffffffffffffffffffffffffffffffff16610b6e6109bd565b73ffffffffffffffffffffffffffffffffffffffff1614610bc4576040517f08c379a0000000000000000000000000000000000000000000000000000000008152600401610bbb90611105565b60405180910390fd5b600073ffffffffffffffffffffffffffffffffffffffff168173ffffffffffffffffffffffffffffffffffffffff161415610c34576040517f08c379a0000000000000000000000000000000000000000000000000000000008152600401610c2b906110c5565b60405180910390fd5b8073ffffffffffffffffffffffffffffffffffffffff1660008054906101000a900473ffffffffffffffffffffffffffffffffffffffff1673ffffffffffffffffffffffffffffffffffffffff167f8be0079c531659141344cd1fd0a4f28419497f9722a3daafe3b4186f6b6457e060405160405180910390a3806000806101000a81548173ffffffffffffffffffffffffffffffffffffffff021916908373ffffffffffffffffffffffffffffffffffffffff16021790555050565b600033905090565b60006040517f3d602d80600a3d3981f3363d3d373d3d3d363d7300000000000000000000000081528260601b60148201527f5af43d82803e903d91602b57fd5bf3000000000000000000000000000000000060288201526037816000f0915050600073ffffffffffffffffffffffffffffffffffffffff168173ffffffffffffffffffffffffffffffffffffffff161415610dc9576040517f08c379a0000000000000000000000000000000000000000000000000000000008152600401610dc0906110e5565b60405180910390fd5b919050565b600081359050610ddd8161123a565b92915050565b600081359050610df281611251565b92915050565b600081519050610e0781611251565b92915050565b600081359050610e1c81611268565b92915050565b600081519050610e3181611268565b92915050565b600060208284031215610e4957600080fd5b6000610e5784828501610dce565b91505092915050565b600060208284031215610e7257600080fd5b6000610e8084828501610df8565b91505092915050565b600060208284031215610e9b57600080fd5b6000610ea984828501610e0d565b91505092915050565b600060208284031215610ec457600080fd5b6000610ed284828501610e22565b91505092915050565b600080600080600060a08688031215610ef357600080fd5b6000610f0188828901610e0d565b9550506020610f1288828901610e0d565b9450506040610f2388828901610e0d565b9350506060610f3488828901610e0d565b9250506080610f4588828901610de3565b9150509295509295909350565b610f5b81611151565b82525050565b610f6a81611163565b82525050565b6000610f7d602683611140565b9150610f8882611199565b604082019050919050565b6000610fa0601683611140565b9150610fab826111e8565b602082019050919050565b6000610fc3602083611140565b9150610fce82611211565b602082019050919050565b610fe28161118f565b82525050565b6000602082019050610ffd6000830184610f52565b92915050565b600060e082019050611018600083018a610f52565b6110256020830189610f52565b6110326040830188610fd9565b61103f6060830187610fd9565b61104c6080830186610fd9565b61105960a0830185610fd9565b61106660c0830184610f61565b98975050505050505050565b600060a0820190506110876000830188610f52565b6110946020830187610fd9565b6110a16040830186610fd9565b6110ae6060830185610fd9565b6110bb6080830184610fd9565b9695505050505050565b600060208201905081810360008301526110de81610f70565b9050919050565b600060208201905081810360008301526110fe81610f93565b9050919050565b6000602082019050818103600083015261111e81610fb6565b9050919050565b600060208201905061113a6000830184610fd9565b92915050565b600082825260208201905092915050565b600061115c8261116f565b9050919050565b60008115159050919050565b600073ffffffffffffffffffffffffffffffffffffffff82169050919050565b6000819050919050565b7f4f776e61626c653a206e6577206f776e657220697320746865207a65726f206160008201527f6464726573730000000000000000000000000000000000000000000000000000602082015250565b7f455243313136373a20637265617465206661696c656400000000000000000000600082015250565b7f4f776e61626c653a2063616c6c6572206973206e6f7420746865206f776e6572600082015250565b61124381611151565b811461124e57600080fd5b50565b61125a81611163565b811461126557600080fd5b50565b6112718161118f565b811461127c57600080fd5b5056fea2646970667358221220122ca453c181a0cd43e229b14f6998c6f7bebcb4a7795818c39364c71f0f4bce64736f6c63430008040033",
  "immutableReferences": {},
  "source": "// SPDX-License-Identifier: MIT\npragma solidity 0.8.4;\n\nimport \"@openzeppelin/contracts/access/Ownable.sol\";\nimport \"@openzeppelin/contracts/proxy/Clones.sol\";\nimport \"./interface/IRandom.sol\";\nimport \"./interface/IPool.sol\";\n\ncontract PoolFactory is Ownable {\n\n    event PoolCreated(address pool, uint256 startDate, uint256 participationEndDate, uint256 endDate, uint256 participationAmount);\n\n    address public poolToken;\n    address public tokenCompound;\n    address public poolImplementation;\n    IRandom private random;\n\n    address[] public registry;\n    \n    constructor(address poolToken_, address tokenCompound_, address poolImplementation_, address _random) {\n        poolToken = poolToken_;\n        tokenCompound = tokenCompound_;\n        poolImplementation = poolImplementation_;\n        random = IRandom(_random);\n    }\n    \n    /**\n     * createPool creates pool which integrate with compound's staking\n     * startDate is date of starting pool, from this date pool's functions enable\n     * participationEndDate is date after which the play function is not available\n     * endDate is date of pool's end, enable to choose winner after this date\n     * participationAmount is required amount for participation\n     * isLottery if true it is a lottery pool, otherwise it is a savings pool\n     */\n    function createPool(uint256 startDate, uint256 participationEndDate, \n            uint256 endDate, uint256 participationAmount, bool isLottery) external onlyOwner {\n                \n        address pool = Clones.clone(poolImplementation);\n        IPool(pool).initialize(poolToken, tokenCompound, startDate, participationEndDate, endDate, participationAmount, isLottery);\n        registry.push(pool);\n        emit PoolCreated(pool, startDate, participationEndDate, endDate, participationAmount);\n    }\n\n    function registryLength() external view returns (uint256) {\n        return registry.length;\n    }\n\n    /**\n     * play spends user money to compound mint\n     * pool is address of pool\n     */\n    function participate(address pool) external {\n        random.regenerateHash();\n        IPool(pool).participate(msg.sender);\n    }\n\n    /**\n     * setWinner set pool's winner, redeem all assets from compound\n     * pool is address of pool\n     */\n    function liquidate(address pool) external onlyOwner {\n        IPool ipool = IPool(pool);\n        if (ipool.isLottery()) {\n            ipool.liquidateWithWinner(random.rand(ipool.participantsLength()));\n        } else {\n            ipool.liquidate();\n        }\n        \n    }\n\n    /**\n     * claim transfer asset from selt to user, winner also receive additional reward\n     * pool is address of pool\n     */\n    function claim(address pool) external {\n        random.regenerateHash();\n        IPool(pool).claim(msg.sender);\n    }\n}",
  "sourcePath": "D:/Atticlab/poolit-contract/contracts/PoolFactory.sol",
  "compiler": {
    "name": "solc",
    "version": "0.8.4+commit.c7e474f2.Emscripten.clang"
  },
  "schemaVersion": "3.4.0",
  "updatedAt": "2021-05-18T06:59:03.796Z",
  "networkType": "ethereum",
  "devdoc": {
    "kind": "dev",
    "methods": {
      "owner()": {
        "details": "Returns the address of the current owner."
      },
      "renounceOwnership()": {
        "details": "Leaves the contract without owner. It will not be possible to call `onlyOwner` functions anymore. Can only be called by the current owner. NOTE: Renouncing ownership will leave the contract without an owner, thereby removing any functionality that is only available to the owner."
      },
      "transferOwnership(address)": {
        "details": "Transfers ownership of the contract to a new account (`newOwner`). Can only be called by the current owner."
      }
    },
    "version": 1
  },
  "userdoc": {
    "kind": "user",
    "methods": {
      "claim(address)": {
        "notice": "claim transfer asset from selt to user, winner also receive additional reward pool is address of pool"
      },
      "createPool(uint256,uint256,uint256,uint256,bool)": {
        "notice": "createPool creates pool which integrate with compound's staking startDate is date of starting pool, from this date pool's functions enable participationEndDate is date after which the play function is not available endDate is date of pool's end, enable to choose winner after this date participationAmount is required amount for participation isLottery if true it is a lottery pool, otherwise it is a savings pool"
      },
      "liquidate(address)": {
        "notice": "setWinner set pool's winner, redeem all assets from compound pool is address of pool"
      },
      "participate(address)": {
        "notice": "play spends user money to compound mint pool is address of pool"
      }
    },
    "version": 1
  }
}