{
  "contractName": "PoolFactory",
  "abi": [
    {
      "inputs": [
        {
          "internalType": "address",
          "name": "_poolToken",
          "type": "address"
        },
        {
          "internalType": "address",
          "name": "_tokenCompound",
          "type": "address"
        },
        {
          "internalType": "address",
          "name": "_poolImplementation",
          "type": "address"
        },
        {
          "internalType": "address",
          "name": "_random",
          "type": "address"
        }
      ],
      "stateMutability": "nonpayable",
      "type": "constructor"
    },
    {
      "anonymous": false,
      "inputs": [
        {
          "indexed": true,
          "internalType": "address",
          "name": "previousOwner",
          "type": "address"
        },
        {
          "indexed": true,
          "internalType": "address",
          "name": "newOwner",
          "type": "address"
        }
      ],
      "name": "OwnershipTransferred",
      "type": "event"
    },
    {
      "anonymous": false,
      "inputs": [
        {
          "indexed": false,
          "internalType": "address",
          "name": "pool",
          "type": "address"
        },
        {
          "indexed": false,
          "internalType": "uint256",
          "name": "startDate",
          "type": "uint256"
        },
        {
          "indexed": false,
          "internalType": "uint256",
          "name": "participationEndDate",
          "type": "uint256"
        },
        {
          "indexed": false,
          "internalType": "uint256",
          "name": "endDate",
          "type": "uint256"
        },
        {
          "indexed": false,
          "internalType": "uint256",
          "name": "poolCost",
          "type": "uint256"
        }
      ],
      "name": "PoolCreated",
      "type": "event"
    },
    {
      "inputs": [],
      "name": "owner",
      "outputs": [
        {
          "internalType": "address",
          "name": "",
          "type": "address"
        }
      ],
      "stateMutability": "view",
      "type": "function",
      "constant": true
    },
    {
      "inputs": [],
      "name": "poolImplementation",
      "outputs": [
        {
          "internalType": "address",
          "name": "",
          "type": "address"
        }
      ],
      "stateMutability": "view",
      "type": "function",
      "constant": true
    },
    {
      "inputs": [],
      "name": "poolToken",
      "outputs": [
        {
          "internalType": "address",
          "name": "",
          "type": "address"
        }
      ],
      "stateMutability": "view",
      "type": "function",
      "constant": true
    },
    {
      "inputs": [],
      "name": "renounceOwnership",
      "outputs": [],
      "stateMutability": "nonpayable",
      "type": "function"
    },
    {
      "inputs": [],
      "name": "tokenCompound",
      "outputs": [
        {
          "internalType": "address",
          "name": "",
          "type": "address"
        }
      ],
      "stateMutability": "view",
      "type": "function",
      "constant": true
    },
    {
      "inputs": [
        {
          "internalType": "address",
          "name": "newOwner",
          "type": "address"
        }
      ],
      "name": "transferOwnership",
      "outputs": [],
      "stateMutability": "nonpayable",
      "type": "function"
    },
    {
      "inputs": [
        {
          "internalType": "uint256",
          "name": "_startDate",
          "type": "uint256"
        },
        {
          "internalType": "uint256",
          "name": "_participationEndDate",
          "type": "uint256"
        },
        {
          "internalType": "uint256",
          "name": "_endDate",
          "type": "uint256"
        },
        {
          "internalType": "uint256",
          "name": "_poolCost",
          "type": "uint256"
        }
      ],
      "name": "createPool",
      "outputs": [],
      "stateMutability": "nonpayable",
      "type": "function"
    },
    {
      "inputs": [
        {
          "internalType": "address",
          "name": "_pool",
          "type": "address"
        }
      ],
      "name": "play",
      "outputs": [],
      "stateMutability": "nonpayable",
      "type": "function"
    },
    {
      "inputs": [
        {
          "internalType": "address",
          "name": "_pool",
          "type": "address"
        }
      ],
      "name": "setWinner",
      "outputs": [],
      "stateMutability": "nonpayable",
      "type": "function"
    },
    {
      "inputs": [
        {
          "internalType": "address",
          "name": "_pool",
          "type": "address"
        }
      ],
      "name": "claim",
      "outputs": [],
      "stateMutability": "nonpayable",
      "type": "function"
    }
  ],
  "bytecode": "0x60806040523480156200001157600080fd5b50604051620012c4380380620012c4833981810160405281019062000037919062000214565b600062000049620001f560201b60201c565b9050806000806101000a81548173ffffffffffffffffffffffffffffffffffffffff021916908373ffffffffffffffffffffffffffffffffffffffff1602179055508073ffffffffffffffffffffffffffffffffffffffff16600073ffffffffffffffffffffffffffffffffffffffff167f8be0079c531659141344cd1fd0a4f28419497f9722a3daafe3b4186f6b6457e060405160405180910390a35083600160006101000a81548173ffffffffffffffffffffffffffffffffffffffff021916908373ffffffffffffffffffffffffffffffffffffffff16021790555082600260006101000a81548173ffffffffffffffffffffffffffffffffffffffff021916908373ffffffffffffffffffffffffffffffffffffffff16021790555081600360006101000a81548173ffffffffffffffffffffffffffffffffffffffff021916908373ffffffffffffffffffffffffffffffffffffffff16021790555080600460006101000a81548173ffffffffffffffffffffffffffffffffffffffff021916908373ffffffffffffffffffffffffffffffffffffffff16021790555050505050620002ce565b600033905090565b6000815190506200020e81620002b4565b92915050565b600080600080608085870312156200022b57600080fd5b60006200023b87828801620001fd565b94505060206200024e87828801620001fd565b93505060406200026187828801620001fd565b92505060606200027487828801620001fd565b91505092959194509250565b60006200028d8262000294565b9050919050565b600073ffffffffffffffffffffffffffffffffffffffff82169050919050565b620002bf8162000280565b8114620002cb57600080fd5b50565b610fe680620002de6000396000f3fe608060405234801561001057600080fd5b50600436106100be5760003560e01c8063cbdf382c11610076578063d9fca7691161005b578063d9fca7691461017d578063e492814f14610199578063f2fde38b146101b5576100be565b8063cbdf382c14610141578063cefa77991461015f576100be565b8063715018a6116100a7578063715018a6146100fb5780638da5cb5b14610105578063b67de00814610123576100be565b80631377984f146100c35780631e83409a146100df575b600080fd5b6100dd60048036038101906100d89190610c60565b6101d1565b005b6100f960048036038101906100f49190610c0e565b61037b565b005b61010361046b565b005b61010d6105a5565b60405161011a9190610d4a565b60405180910390f35b61012b6105ce565b6040516101389190610d4a565b60405180910390f35b6101496105f4565b6040516101569190610d4a565b60405180910390f35b61016761061a565b6040516101749190610d4a565b60405180910390f35b61019760048036038101906101929190610c0e565b610640565b005b6101b360048036038101906101ae9190610c0e565b610859565b005b6101cf60048036038101906101ca9190610c0e565b610949565b005b6101d9610af2565b73ffffffffffffffffffffffffffffffffffffffff166101f76105a5565b73ffffffffffffffffffffffffffffffffffffffff161461024d576040517f08c379a000000000000000000000000000000000000000000000000000000000815260040161024490610e59565b60405180910390fd5b600061027a600360009054906101000a900473ffffffffffffffffffffffffffffffffffffffff16610afa565b90508073ffffffffffffffffffffffffffffffffffffffff166386489ba9600160009054906101000a900473ffffffffffffffffffffffffffffffffffffffff16600260009054906101000a900473ffffffffffffffffffffffffffffffffffffffff16888888886040518763ffffffff1660e01b815260040161030396959493929190610d65565b600060405180830381600087803b15801561031d57600080fd5b505af1158015610331573d6000803e3d6000fd5b505050507f17bb6b49ca5e4d3f819d7bacfe56be4359e1e32146032ac3b9163de791b6dac4818686868660405161036c959493929190610dc6565b60405180910390a15050505050565b600460009054906101000a900473ffffffffffffffffffffffffffffffffffffffff1673ffffffffffffffffffffffffffffffffffffffff1663f29886946040518163ffffffff1660e01b8152600401600060405180830381600087803b1580156103e557600080fd5b505af11580156103f9573d6000803e3d6000fd5b505050508073ffffffffffffffffffffffffffffffffffffffff16631e83409a336040518263ffffffff1660e01b81526004016104369190610d4a565b600060405180830381600087803b15801561045057600080fd5b505af1158015610464573d6000803e3d6000fd5b5050505050565b610473610af2565b73ffffffffffffffffffffffffffffffffffffffff166104916105a5565b73ffffffffffffffffffffffffffffffffffffffff16146104e7576040517f08c379a00000000000000000000000000000000000000000000000000000000081526004016104de90610e59565b60405180910390fd5b600073ffffffffffffffffffffffffffffffffffffffff1660008054906101000a900473ffffffffffffffffffffffffffffffffffffffff1673ffffffffffffffffffffffffffffffffffffffff167f8be0079c531659141344cd1fd0a4f28419497f9722a3daafe3b4186f6b6457e060405160405180910390a360008060006101000a81548173ffffffffffffffffffffffffffffffffffffffff021916908373ffffffffffffffffffffffffffffffffffffffff160217905550565b60008060009054906101000a900473ffffffffffffffffffffffffffffffffffffffff16905090565b600260009054906101000a900473ffffffffffffffffffffffffffffffffffffffff1681565b600160009054906101000a900473ffffffffffffffffffffffffffffffffffffffff1681565b600360009054906101000a900473ffffffffffffffffffffffffffffffffffffffff1681565b610648610af2565b73ffffffffffffffffffffffffffffffffffffffff166106666105a5565b73ffffffffffffffffffffffffffffffffffffffff16146106bc576040517f08c379a00000000000000000000000000000000000000000000000000000000081526004016106b390610e59565b60405180910390fd5b60008190508073ffffffffffffffffffffffffffffffffffffffff16630df71602600460009054906101000a900473ffffffffffffffffffffffffffffffffffffffff1673ffffffffffffffffffffffffffffffffffffffff16632530c9058473ffffffffffffffffffffffffffffffffffffffff16635c1db0496040518163ffffffff1660e01b815260040160206040518083038186803b15801561076157600080fd5b505afa158015610775573d6000803e3d6000fd5b505050506040513d601f19601f820116820180604052508101906107999190610c37565b6040518263ffffffff1660e01b81526004016107b59190610e79565b602060405180830381600087803b1580156107cf57600080fd5b505af11580156107e3573d6000803e3d6000fd5b505050506040513d601f19601f820116820180604052508101906108079190610c37565b6040518263ffffffff1660e01b81526004016108239190610e79565b600060405180830381600087803b15801561083d57600080fd5b505af1158015610851573d6000803e3d6000fd5b505050505050565b600460009054906101000a900473ffffffffffffffffffffffffffffffffffffffff1673ffffffffffffffffffffffffffffffffffffffff1663f29886946040518163ffffffff1660e01b8152600401600060405180830381600087803b1580156108c357600080fd5b505af11580156108d7573d6000803e3d6000fd5b505050508073ffffffffffffffffffffffffffffffffffffffff1663e492814f336040518263ffffffff1660e01b81526004016109149190610d4a565b600060405180830381600087803b15801561092e57600080fd5b505af1158015610942573d6000803e3d6000fd5b5050505050565b610951610af2565b73ffffffffffffffffffffffffffffffffffffffff1661096f6105a5565b73ffffffffffffffffffffffffffffffffffffffff16146109c5576040517f08c379a00000000000000000000000000000000000000000000000000000000081526004016109bc90610e59565b60405180910390fd5b600073ffffffffffffffffffffffffffffffffffffffff168173ffffffffffffffffffffffffffffffffffffffff161415610a35576040517f08c379a0000000000000000000000000000000000000000000000000000000008152600401610a2c90610e19565b60405180910390fd5b8073ffffffffffffffffffffffffffffffffffffffff1660008054906101000a900473ffffffffffffffffffffffffffffffffffffffff1673ffffffffffffffffffffffffffffffffffffffff167f8be0079c531659141344cd1fd0a4f28419497f9722a3daafe3b4186f6b6457e060405160405180910390a3806000806101000a81548173ffffffffffffffffffffffffffffffffffffffff021916908373ffffffffffffffffffffffffffffffffffffffff16021790555050565b600033905090565b60006040517f3d602d80600a3d3981f3363d3d373d3d3d363d7300000000000000000000000081528260601b60148201527f5af43d82803e903d91602b57fd5bf3000000000000000000000000000000000060288201526037816000f0915050600073ffffffffffffffffffffffffffffffffffffffff168173ffffffffffffffffffffffffffffffffffffffff161415610bca576040517f08c379a0000000000000000000000000000000000000000000000000000000008152600401610bc190610e39565b60405180910390fd5b919050565b600081359050610bde81610f82565b92915050565b600081359050610bf381610f99565b92915050565b600081519050610c0881610f99565b92915050565b600060208284031215610c2057600080fd5b6000610c2e84828501610bcf565b91505092915050565b600060208284031215610c4957600080fd5b6000610c5784828501610bf9565b91505092915050565b60008060008060808587031215610c7657600080fd5b6000610c8487828801610be4565b9450506020610c9587828801610be4565b9350506040610ca687828801610be4565b9250506060610cb787828801610be4565b91505092959194509250565b610ccc81610ea5565b82525050565b6000610cdf602683610e94565b9150610cea82610ee1565b604082019050919050565b6000610d02601683610e94565b9150610d0d82610f30565b602082019050919050565b6000610d25602083610e94565b9150610d3082610f59565b602082019050919050565b610d4481610ed7565b82525050565b6000602082019050610d5f6000830184610cc3565b92915050565b600060c082019050610d7a6000830189610cc3565b610d876020830188610cc3565b610d946040830187610d3b565b610da16060830186610d3b565b610dae6080830185610d3b565b610dbb60a0830184610d3b565b979650505050505050565b600060a082019050610ddb6000830188610cc3565b610de86020830187610d3b565b610df56040830186610d3b565b610e026060830185610d3b565b610e0f6080830184610d3b565b9695505050505050565b60006020820190508181036000830152610e3281610cd2565b9050919050565b60006020820190508181036000830152610e5281610cf5565b9050919050565b60006020820190508181036000830152610e7281610d18565b9050919050565b6000602082019050610e8e6000830184610d3b565b92915050565b600082825260208201905092915050565b6000610eb082610eb7565b9050919050565b600073ffffffffffffffffffffffffffffffffffffffff82169050919050565b6000819050919050565b7f4f776e61626c653a206e6577206f776e657220697320746865207a65726f206160008201527f6464726573730000000000000000000000000000000000000000000000000000602082015250565b7f455243313136373a20637265617465206661696c656400000000000000000000600082015250565b7f4f776e61626c653a2063616c6c6572206973206e6f7420746865206f776e6572600082015250565b610f8b81610ea5565b8114610f9657600080fd5b50565b610fa281610ed7565b8114610fad57600080fd5b5056fea26469706673582212200f7985d8089d5c493ed599dac883f74e35d243bc84c936094568e55b614c100564736f6c63430008030033",
  "immutableReferences": {},
  "source": "// SPDX-License-Identifier: MIT\npragma solidity 0.8.3;\n\nimport \"@openzeppelin/contracts/access/Ownable.sol\";\nimport \"./interface/IRandom.sol\";\nimport \"./interface/IPool.sol\";\nimport \"./lib/Clones.sol\";\n\ncontract PoolFactory is Ownable {\n\n    event PoolCreated(address pool, uint256 startDate, uint256 participationEndDate, uint256 endDate, uint256 poolCost);\n\n    address public poolToken;\n    address public tokenCompound;\n    address public poolImplementation;\n    IRandom private random;\n    \n    constructor(address _poolToken, address _tokenCompound, address _poolImplementation, address _random) {\n        poolToken = _poolToken;\n        tokenCompound = _tokenCompound;\n        poolImplementation = _poolImplementation;\n        random = IRandom(_random);\n    }\n    \n    /**\n     * createPool creates pool which integrate with compound's staking\n     * _startDate is date of starting pool, from this date pool's functions enable\n     * _participationEndDate is date after which the play function is not available\n     * _endDate is date of pool's end, enable to choose winner after this date\n     * _poolCost is required amount for participation\n     */\n    function createPool(uint256 _startDate, uint256 _participationEndDate, uint256 _endDate, uint256 _poolCost) onlyOwner external {\n        address _pool = Clones.clone(poolImplementation);\n        IPool(_pool).initialize(poolToken, tokenCompound, _startDate, _participationEndDate, _endDate, _poolCost);\n        emit PoolCreated(_pool, _startDate, _participationEndDate, _endDate, _poolCost);\n    }\n\n    /**\n     * play spends user money to compound mint\n     * _pool is address of pool\n     */\n    function play(address _pool) external {\n        random.regenerateHash();\n        IPool(_pool).play(msg.sender);\n    }\n\n    /**\n     * setWinner set pool's winner, redeem all assets from compound\n     * _pool is address of pool\n     */\n    function setWinner(address _pool) external onlyOwner {\n        IPool _ipool = IPool(_pool);\n        _ipool.setWinner(random.rand(_ipool.getUsersListLength()));\n    }\n\n    /**\n     * claim transfer asset from selt to user, winner also receive additional reward\n     * _pool is address of pool\n     */\n    function claim(address _pool) external {\n        random.regenerateHash();\n        IPool(_pool).claim(msg.sender);\n    }\n}",
  "sourcePath": "D:/Atticlab/poolit-contract/contracts/PoolFactory.sol",
  "compiler": {
    "name": "solc",
    "version": "0.8.3+commit.8d00100c.Emscripten.clang"
  },
  "schemaVersion": "3.4.0",
  "updatedAt": "2021-05-11T08:56:16.660Z",
  "networkType": "ethereum",
  "devdoc": {
    "kind": "dev",
    "methods": {
      "owner()": {
        "details": "Returns the address of the current owner."
      },
      "renounceOwnership()": {
        "details": "Leaves the contract without owner. It will not be possible to call `onlyOwner` functions anymore. Can only be called by the current owner. NOTE: Renouncing ownership will leave the contract without an owner, thereby removing any functionality that is only available to the owner."
      },
      "transferOwnership(address)": {
        "details": "Transfers ownership of the contract to a new account (`newOwner`). Can only be called by the current owner."
      }
    },
    "version": 1
  },
  "userdoc": {
    "kind": "user",
    "methods": {
      "claim(address)": {
        "notice": "claim transfer asset from selt to user, winner also receive additional reward _pool is address of pool"
      },
      "createPool(uint256,uint256,uint256,uint256)": {
        "notice": "createPool creates pool which integrate with compound's staking _startDate is date of starting pool, from this date pool's functions enable _participationEndDate is date after which the play function is not available _endDate is date of pool's end, enable to choose winner after this date _poolCost is required amount for participation"
      },
      "play(address)": {
        "notice": "play spends user money to compound mint _pool is address of pool"
      },
      "setWinner(address)": {
        "notice": "setWinner set pool's winner, redeem all assets from compound _pool is address of pool"
      }
    },
    "version": 1
  }
}