{
  "contractName": "Pool",
  "abi": [
    {
      "anonymous": false,
      "inputs": [
        {
          "indexed": true,
          "internalType": "address",
          "name": "previousOwner",
          "type": "address"
        },
        {
          "indexed": true,
          "internalType": "address",
          "name": "newOwner",
          "type": "address"
        }
      ],
      "name": "OwnershipTransferred",
      "type": "event"
    },
    {
      "inputs": [],
      "name": "endDate",
      "outputs": [
        {
          "internalType": "uint256",
          "name": "",
          "type": "uint256"
        }
      ],
      "stateMutability": "view",
      "type": "function",
      "constant": true
    },
    {
      "inputs": [],
      "name": "owner",
      "outputs": [
        {
          "internalType": "address",
          "name": "",
          "type": "address"
        }
      ],
      "stateMutability": "view",
      "type": "function",
      "constant": true
    },
    {
      "inputs": [],
      "name": "participationEndDate",
      "outputs": [
        {
          "internalType": "uint256",
          "name": "",
          "type": "uint256"
        }
      ],
      "stateMutability": "view",
      "type": "function",
      "constant": true
    },
    {
      "inputs": [],
      "name": "poolCost",
      "outputs": [
        {
          "internalType": "uint256",
          "name": "",
          "type": "uint256"
        }
      ],
      "stateMutability": "view",
      "type": "function",
      "constant": true
    },
    {
      "inputs": [],
      "name": "poolToken",
      "outputs": [
        {
          "internalType": "contract IERC20",
          "name": "",
          "type": "address"
        }
      ],
      "stateMutability": "view",
      "type": "function",
      "constant": true
    },
    {
      "inputs": [],
      "name": "renounceOwnership",
      "outputs": [],
      "stateMutability": "nonpayable",
      "type": "function"
    },
    {
      "inputs": [],
      "name": "rewardedUser",
      "outputs": [
        {
          "internalType": "address",
          "name": "",
          "type": "address"
        }
      ],
      "stateMutability": "view",
      "type": "function",
      "constant": true
    },
    {
      "inputs": [],
      "name": "startDate",
      "outputs": [
        {
          "internalType": "uint256",
          "name": "",
          "type": "uint256"
        }
      ],
      "stateMutability": "view",
      "type": "function",
      "constant": true
    },
    {
      "inputs": [],
      "name": "tokenCompound",
      "outputs": [
        {
          "internalType": "contract ICompound",
          "name": "",
          "type": "address"
        }
      ],
      "stateMutability": "view",
      "type": "function",
      "constant": true
    },
    {
      "inputs": [
        {
          "internalType": "address",
          "name": "newOwner",
          "type": "address"
        }
      ],
      "name": "transferOwnership",
      "outputs": [],
      "stateMutability": "nonpayable",
      "type": "function"
    },
    {
      "inputs": [
        {
          "internalType": "address",
          "name": "",
          "type": "address"
        }
      ],
      "name": "usersIndex",
      "outputs": [
        {
          "internalType": "uint256",
          "name": "",
          "type": "uint256"
        }
      ],
      "stateMutability": "view",
      "type": "function",
      "constant": true
    },
    {
      "inputs": [
        {
          "internalType": "uint256",
          "name": "",
          "type": "uint256"
        }
      ],
      "name": "usersList",
      "outputs": [
        {
          "internalType": "address",
          "name": "user",
          "type": "address"
        },
        {
          "internalType": "bool",
          "name": "claimed",
          "type": "bool"
        }
      ],
      "stateMutability": "view",
      "type": "function",
      "constant": true
    },
    {
      "inputs": [],
      "name": "winnersAmount",
      "outputs": [
        {
          "internalType": "uint256",
          "name": "",
          "type": "uint256"
        }
      ],
      "stateMutability": "view",
      "type": "function",
      "constant": true
    },
    {
      "inputs": [
        {
          "internalType": "address",
          "name": "token",
          "type": "address"
        },
        {
          "internalType": "address",
          "name": "compound",
          "type": "address"
        },
        {
          "internalType": "uint256",
          "name": "_startDate",
          "type": "uint256"
        },
        {
          "internalType": "uint256",
          "name": "_participationEndDate",
          "type": "uint256"
        },
        {
          "internalType": "uint256",
          "name": "_endDate",
          "type": "uint256"
        },
        {
          "internalType": "uint256",
          "name": "_poolCost",
          "type": "uint256"
        }
      ],
      "name": "initialize",
      "outputs": [],
      "stateMutability": "nonpayable",
      "type": "function"
    },
    {
      "inputs": [
        {
          "internalType": "address",
          "name": "_user",
          "type": "address"
        }
      ],
      "name": "play",
      "outputs": [],
      "stateMutability": "nonpayable",
      "type": "function"
    },
    {
      "inputs": [
        {
          "internalType": "uint256",
          "name": "_number",
          "type": "uint256"
        }
      ],
      "name": "setWinner",
      "outputs": [],
      "stateMutability": "nonpayable",
      "type": "function"
    },
    {
      "inputs": [
        {
          "internalType": "address",
          "name": "_user",
          "type": "address"
        }
      ],
      "name": "claim",
      "outputs": [],
      "stateMutability": "nonpayable",
      "type": "function"
    },
    {
      "inputs": [],
      "name": "getUsersListLength",
      "outputs": [
        {
          "internalType": "uint256",
          "name": "",
          "type": "uint256"
        }
      ],
      "stateMutability": "view",
      "type": "function",
      "constant": true
    }
  ],
  "bytecode": "0x608060405234801561001057600080fd5b5060006100216100c460201b60201c565b9050806000806101000a81548173ffffffffffffffffffffffffffffffffffffffff021916908373ffffffffffffffffffffffffffffffffffffffff1602179055508073ffffffffffffffffffffffffffffffffffffffff16600073ffffffffffffffffffffffffffffffffffffffff167f8be0079c531659141344cd1fd0a4f28419497f9722a3daafe3b4186f6b6457e060405160405180910390a3506100cc565b600033905090565b6127ae806100db6000396000f3fe608060405234801561001057600080fd5b50600436106101365760003560e01c806386489ba9116100b2578063c24a0f8b11610081578063cbdf382c11610066578063cbdf382c14610308578063e492814f14610326578063f2fde38b1461034257610136565b8063c24a0f8b146102cc578063c3ba5a54146102ea57610136565b806386489ba9146102445780638da5cb5b146102605780638e2f229f1461027e578063b67de008146102ae57610136565b8063502aa3b511610109578063715018a6116100ee578063715018a6146101fe578063812f6b081461020857806382e019de1461022657610136565b8063502aa3b5146101af5780635c1db049146101e057610136565b80630b97bc861461013b5780630df71602146101595780631e83409a146101755780632dc2107f14610191575b600080fd5b61014361035e565b6040516101509190612201565b60405180910390f35b610173600480360381019061016e9190611b9c565b610364565b005b61018f600480360381019061018a9190611aea565b6108d6565b005b610199610ddb565b6040516101a69190612201565b60405180910390f35b6101c960048036038101906101c49190611b9c565b610de1565b6040516101d7929190611f10565b60405180910390f35b6101e8610e3e565b6040516101f59190612201565b60405180910390f35b610206610e4b565b005b610210610f85565b60405161021d9190612201565b60405180910390f35b61022e610f8b565b60405161023b9190611ebe565b60405180910390f35b61025e60048036038101906102599190611b13565b610fb1565b005b610268611240565b6040516102759190611ebe565b60405180910390f35b61029860048036038101906102939190611aea565b611269565b6040516102a59190612201565b60405180910390f35b6102b6611281565b6040516102c39190611f8b565b60405180910390f35b6102d46112a7565b6040516102e19190612201565b60405180910390f35b6102f26112ad565b6040516102ff9190612201565b60405180910390f35b6103106112b3565b60405161031d9190611fa6565b60405180910390f35b610340600480360381019061033b9190611aea565b6112d9565b005b61035c60048036038101906103579190611aea565b611705565b005b60035481565b61036c6118ae565b73ffffffffffffffffffffffffffffffffffffffff1661038a611240565b73ffffffffffffffffffffffffffffffffffffffff16146103e0576040517f08c379a00000000000000000000000000000000000000000000000000000000081526004016103d790612121565b60405180910390fd5b6005544211610424576040517f08c379a000000000000000000000000000000000000000000000000000000000815260040161041b906120a1565b60405180910390fd5b600073ffffffffffffffffffffffffffffffffffffffff16600760009054906101000a900473ffffffffffffffffffffffffffffffffffffffff1673ffffffffffffffffffffffffffffffffffffffff16146104b5576040517f08c379a00000000000000000000000000000000000000000000000000000000081526004016104ac90612081565b60405180910390fd5b60006001805490509050808210610501576040517f08c379a00000000000000000000000000000000000000000000000000000000081526004016104f890611fc1565b60405180910390fd5b600073ffffffffffffffffffffffffffffffffffffffff16600a60009054906101000a900473ffffffffffffffffffffffffffffffffffffffff1673ffffffffffffffffffffffffffffffffffffffff16146106f157600a60009054906101000a900473ffffffffffffffffffffffffffffffffffffffff1673ffffffffffffffffffffffffffffffffffffffff1663db006a75600a60009054906101000a900473ffffffffffffffffffffffffffffffffffffffff1673ffffffffffffffffffffffffffffffffffffffff166370a08231306040518263ffffffff1660e01b81526004016105f09190611ebe565b60206040518083038186803b15801561060857600080fd5b505afa15801561061c573d6000803e3d6000fd5b505050506040513d601f19601f820116820180604052508101906106409190611bc5565b6040518263ffffffff1660e01b815260040161065c9190612201565b602060405180830381600087803b15801561067657600080fd5b505af115801561068a573d6000803e3d6000fd5b505050506040513d601f19601f820116820180604052508101906106ae9190611bc5565b6000146106f0576040517f08c379a00000000000000000000000000000000000000000000000000000000081526004016106e790612141565b60405180910390fd5b5b60006001838154811061072d577f4e487b7100000000000000000000000000000000000000000000000000000000600052603260045260246000fd5b906000526020600020016040518060400160405290816000820160009054906101000a900473ffffffffffffffffffffffffffffffffffffffff1673ffffffffffffffffffffffffffffffffffffffff1673ffffffffffffffffffffffffffffffffffffffff1681526020016000820160149054906101000a900460ff16151515158152505090508060000151600760006101000a81548173ffffffffffffffffffffffffffffffffffffffff021916908373ffffffffffffffffffffffffffffffffffffffff1602179055506108cb610812836006546118b690919063ffffffff16565b600960009054906101000a900473ffffffffffffffffffffffffffffffffffffffff1673ffffffffffffffffffffffffffffffffffffffff166370a08231306040518263ffffffff1660e01b815260040161086d9190611ebe565b60206040518083038186803b15801561088557600080fd5b505afa158015610899573d6000803e3d6000fd5b505050506040513d601f19601f820116820180604052508101906108bd9190611bc5565b61193190919063ffffffff16565b600881905550505050565b6108de6118ae565b73ffffffffffffffffffffffffffffffffffffffff166108fc611240565b73ffffffffffffffffffffffffffffffffffffffff1614610952576040517f08c379a000000000000000000000000000000000000000000000000000000000815260040161094990612121565b60405180910390fd5b600073ffffffffffffffffffffffffffffffffffffffff16600760009054906101000a900473ffffffffffffffffffffffffffffffffffffffff1673ffffffffffffffffffffffffffffffffffffffff1614156109e4576040517f08c379a00000000000000000000000000000000000000000000000000000000081526004016109db90612041565b60405180910390fd5b6000600260008373ffffffffffffffffffffffffffffffffffffffff1673ffffffffffffffffffffffffffffffffffffffff1681526020019081526020016000205490506000811415610a6c576040517f08c379a0000000000000000000000000000000000000000000000000000000008152600401610a6390612161565b60405180910390fd5b600181610a79919061230e565b9050600060018281548110610ab7577f4e487b7100000000000000000000000000000000000000000000000000000000600052603260045260246000fd5b906000526020600020016040518060400160405290816000820160009054906101000a900473ffffffffffffffffffffffffffffffffffffffff1673ffffffffffffffffffffffffffffffffffffffff1673ffffffffffffffffffffffffffffffffffffffff1681526020016000820160149054906101000a900460ff1615151515815250509050806020015115610b84576040517f08c379a0000000000000000000000000000000000000000000000000000000008152600401610b7b90612181565b60405180910390fd5b600760009054906101000a900473ffffffffffffffffffffffffffffffffffffffff1673ffffffffffffffffffffffffffffffffffffffff168373ffffffffffffffffffffffffffffffffffffffff161415610c8457600960009054906101000a900473ffffffffffffffffffffffffffffffffffffffff1673ffffffffffffffffffffffffffffffffffffffff1663a9059cbb84610c3060085460065461199090919063ffffffff16565b6040518363ffffffff1660e01b8152600401610c4d929190611f62565b600060405180830381600087803b158015610c6757600080fd5b505af1158015610c7b573d6000803e3d6000fd5b50505050610d16565b600960009054906101000a900473ffffffffffffffffffffffffffffffffffffffff1673ffffffffffffffffffffffffffffffffffffffff1663a9059cbb846006546040518363ffffffff1660e01b8152600401610ce3929190611f62565b600060405180830381600087803b158015610cfd57600080fd5b505af1158015610d11573d6000803e3d6000fd5b505050505b60018160200190151590811515815250508060018381548110610d62577f4e487b7100000000000000000000000000000000000000000000000000000000600052603260045260246000fd5b9060005260206000200160008201518160000160006101000a81548173ffffffffffffffffffffffffffffffffffffffff021916908373ffffffffffffffffffffffffffffffffffffffff16021790555060208201518160000160146101000a81548160ff021916908315150217905550905050505050565b60045481565b60018181548110610df157600080fd5b906000526020600020016000915090508060000160009054906101000a900473ffffffffffffffffffffffffffffffffffffffff16908060000160149054906101000a900460ff16905082565b6000600180549050905090565b610e536118ae565b73ffffffffffffffffffffffffffffffffffffffff16610e71611240565b73ffffffffffffffffffffffffffffffffffffffff1614610ec7576040517f08c379a0000000000000000000000000000000000000000000000000000000008152600401610ebe90612121565b60405180910390fd5b600073ffffffffffffffffffffffffffffffffffffffff1660008054906101000a900473ffffffffffffffffffffffffffffffffffffffff1673ffffffffffffffffffffffffffffffffffffffff167f8be0079c531659141344cd1fd0a4f28419497f9722a3daafe3b4186f6b6457e060405160405180910390a360008060006101000a81548173ffffffffffffffffffffffffffffffffffffffff021916908373ffffffffffffffffffffffffffffffffffffffff160217905550565b60065481565b600760009054906101000a900473ffffffffffffffffffffffffffffffffffffffff1681565b600a60149054906101000a900460ff1615611001576040517f08c379a0000000000000000000000000000000000000000000000000000000008152600401610ff8906120e1565b60405180910390fd5b828211801561100f57508383115b61104e576040517f08c379a0000000000000000000000000000000000000000000000000000000008152600401611045906121e1565b60405180910390fd5b6000811415611092576040517f08c379a000000000000000000000000000000000000000000000000000000000815260040161108990612101565b60405180910390fd5b85600960006101000a81548173ffffffffffffffffffffffffffffffffffffffff021916908373ffffffffffffffffffffffffffffffffffffffff16021790555084600a60006101000a81548173ffffffffffffffffffffffffffffffffffffffff021916908373ffffffffffffffffffffffffffffffffffffffff16021790555061111d336119ee565b600073ffffffffffffffffffffffffffffffffffffffff168573ffffffffffffffffffffffffffffffffffffffff161461120157600960009054906101000a900473ffffffffffffffffffffffffffffffffffffffff1673ffffffffffffffffffffffffffffffffffffffff1663095ea7b3867fffffffffffffffffffffffffffffffffffffffffffffffffffffffffffffffff6040518363ffffffff1660e01b81526004016111ce929190611f39565b600060405180830381600087803b1580156111e857600080fd5b505af11580156111fc573d6000803e3d6000fd5b505050505b836003819055508260048190555081600581905550806006819055506001600a60146101000a81548160ff021916908315150217905550505050505050565b60008060009054906101000a900473ffffffffffffffffffffffffffffffffffffffff16905090565b60026020528060005260406000206000915090505481565b600a60009054906101000a900473ffffffffffffffffffffffffffffffffffffffff1681565b60055481565b60085481565b600960009054906101000a900473ffffffffffffffffffffffffffffffffffffffff1681565b6112e16118ae565b73ffffffffffffffffffffffffffffffffffffffff166112ff611240565b73ffffffffffffffffffffffffffffffffffffffff1614611355576040517f08c379a000000000000000000000000000000000000000000000000000000000815260040161134c90612121565b60405180910390fd5b60035442101561139a576040517f08c379a000000000000000000000000000000000000000000000000000000000815260040161139190612021565b60405180910390fd5b6004544211156113df576040517f08c379a00000000000000000000000000000000000000000000000000000000081526004016113d690612001565b60405180910390fd5b6000600260008373ffffffffffffffffffffffffffffffffffffffff1673ffffffffffffffffffffffffffffffffffffffff1681526020019081526020016000205414611461576040517f08c379a000000000000000000000000000000000000000000000000000000000815260040161145890612061565b60405180910390fd5b600960009054906101000a900473ffffffffffffffffffffffffffffffffffffffff1673ffffffffffffffffffffffffffffffffffffffff166323b872dd82306006546040518463ffffffff1660e01b81526004016114c293929190611ed9565b600060405180830381600087803b1580156114dc57600080fd5b505af11580156114f0573d6000803e3d6000fd5b50505050600073ffffffffffffffffffffffffffffffffffffffff16600a60009054906101000a900473ffffffffffffffffffffffffffffffffffffffff1673ffffffffffffffffffffffffffffffffffffffff16146115fb57600a60009054906101000a900473ffffffffffffffffffffffffffffffffffffffff1673ffffffffffffffffffffffffffffffffffffffff1663a0712d686006546040518263ffffffff1660e01b81526004016115a79190612201565b602060405180830381600087803b1580156115c157600080fd5b505af11580156115d5573d6000803e3d6000fd5b505050506040513d601f19601f820116820180604052508101906115f99190611bc5565b505b600160405180604001604052808373ffffffffffffffffffffffffffffffffffffffff168152602001600015158152509080600181540180825580915050600190039060005260206000200160009091909190915060008201518160000160006101000a81548173ffffffffffffffffffffffffffffffffffffffff021916908373ffffffffffffffffffffffffffffffffffffffff16021790555060208201518160000160146101000a81548160ff0219169083151502179055505050600180549050600260008373ffffffffffffffffffffffffffffffffffffffff1673ffffffffffffffffffffffffffffffffffffffff1681526020019081526020016000208190555050565b61170d6118ae565b73ffffffffffffffffffffffffffffffffffffffff1661172b611240565b73ffffffffffffffffffffffffffffffffffffffff1614611781576040517f08c379a000000000000000000000000000000000000000000000000000000000815260040161177890612121565b60405180910390fd5b600073ffffffffffffffffffffffffffffffffffffffff168173ffffffffffffffffffffffffffffffffffffffff1614156117f1576040517f08c379a00000000000000000000000000000000000000000000000000000000081526004016117e890611fe1565b60405180910390fd5b8073ffffffffffffffffffffffffffffffffffffffff1660008054906101000a900473ffffffffffffffffffffffffffffffffffffffff1673ffffffffffffffffffffffffffffffffffffffff167f8be0079c531659141344cd1fd0a4f28419497f9722a3daafe3b4186f6b6457e060405160405180910390a3806000806101000a81548173ffffffffffffffffffffffffffffffffffffffff021916908373ffffffffffffffffffffffffffffffffffffffff16021790555050565b600033905090565b6000808314156118c9576000905061192b565b600082846118d791906122b4565b90508284826118e69190612283565b14611926576040517f08c379a000000000000000000000000000000000000000000000000000000000815260040161191d906121c1565b60405180910390fd5b809150505b92915050565b600082821115611976576040517f08c379a000000000000000000000000000000000000000000000000000000000815260040161196d906120c1565b60405180910390fd5b60008284611984919061230e565b90508091505092915050565b600080828461199f919061222d565b9050838110156119e4576040517f08c379a00000000000000000000000000000000000000000000000000000000081526004016119db906121a1565b60405180910390fd5b8091505092915050565b8073ffffffffffffffffffffffffffffffffffffffff1660008054906101000a900473ffffffffffffffffffffffffffffffffffffffff1673ffffffffffffffffffffffffffffffffffffffff167f8be0079c531659141344cd1fd0a4f28419497f9722a3daafe3b4186f6b6457e060405160405180910390a3806000806101000a81548173ffffffffffffffffffffffffffffffffffffffff021916908373ffffffffffffffffffffffffffffffffffffffff16021790555050565b600081359050611aba8161274a565b92915050565b600081359050611acf81612761565b92915050565b600081519050611ae481612761565b92915050565b600060208284031215611afc57600080fd5b6000611b0a84828501611aab565b91505092915050565b60008060008060008060c08789031215611b2c57600080fd5b6000611b3a89828a01611aab565b9650506020611b4b89828a01611aab565b9550506040611b5c89828a01611ac0565b9450506060611b6d89828a01611ac0565b9350506080611b7e89828a01611ac0565b92505060a0611b8f89828a01611ac0565b9150509295509295509295565b600060208284031215611bae57600080fd5b6000611bbc84828501611ac0565b91505092915050565b600060208284031215611bd757600080fd5b6000611be584828501611ad5565b91505092915050565b611bf781612342565b82525050565b611c0681612354565b82525050565b611c158161238a565b82525050565b611c24816123ae565b82525050565b611c33816123d2565b82525050565b6000611c46600d8361221c565b9150611c5182612442565b602082019050919050565b6000611c6960268361221c565b9150611c748261246b565b604082019050919050565b6000611c8c60168361221c565b9150611c97826124ba565b602082019050919050565b6000611caf600a8361221c565b9150611cba826124e3565b602082019050919050565b6000611cd2600f8361221c565b9150611cdd8261250c565b602082019050919050565b6000611cf5600b8361221c565b9150611d0082612535565b602082019050919050565b6000611d1860158361221c565b9150611d238261255e565b602082019050919050565b6000611d3b60088361221c565b9150611d4682612587565b602082019050919050565b6000611d5e60098361221c565b9150611d69826125b0565b602082019050919050565b6000611d8160128361221c565b9150611d8c826125d9565b602082019050919050565b6000611da4600b8361221c565b9150611daf82612602565b602082019050919050565b6000611dc760208361221c565b9150611dd28261262b565b602082019050919050565b6000611dea600d8361221c565b9150611df582612654565b602082019050919050565b6000611e0d60078361221c565b9150611e188261267d565b602082019050919050565b6000611e30600e8361221c565b9150611e3b826126a6565b602082019050919050565b6000611e5360098361221c565b9150611e5e826126cf565b602082019050919050565b6000611e7660098361221c565b9150611e81826126f8565b602082019050919050565b6000611e99600b8361221c565b9150611ea482612721565b602082019050919050565b611eb881612380565b82525050565b6000602082019050611ed36000830184611bee565b92915050565b6000606082019050611eee6000830186611bee565b611efb6020830185611bee565b611f086040830184611eaf565b949350505050565b6000604082019050611f256000830185611bee565b611f326020830184611bfd565b9392505050565b6000604082019050611f4e6000830185611bee565b611f5b6020830184611c2a565b9392505050565b6000604082019050611f776000830185611bee565b611f846020830184611eaf565b9392505050565b6000602082019050611fa06000830184611c0c565b92915050565b6000602082019050611fbb6000830184611c1b565b92915050565b60006020820190508181036000830152611fda81611c39565b9050919050565b60006020820190508181036000830152611ffa81611c5c565b9050919050565b6000602082019050818103600083015261201a81611c7f565b9050919050565b6000602082019050818103600083015261203a81611ca2565b9050919050565b6000602082019050818103600083015261205a81611cc5565b9050919050565b6000602082019050818103600083015261207a81611ce8565b9050919050565b6000602082019050818103600083015261209a81611d0b565b9050919050565b600060208201905081810360008301526120ba81611d2e565b9050919050565b600060208201905081810360008301526120da81611d51565b9050919050565b600060208201905081810360008301526120fa81611d74565b9050919050565b6000602082019050818103600083015261211a81611d97565b9050919050565b6000602082019050818103600083015261213a81611dba565b9050919050565b6000602082019050818103600083015261215a81611ddd565b9050919050565b6000602082019050818103600083015261217a81611e00565b9050919050565b6000602082019050818103600083015261219a81611e23565b9050919050565b600060208201905081810360008301526121ba81611e46565b9050919050565b600060208201905081810360008301526121da81611e69565b9050919050565b600060208201905081810360008301526121fa81611e8c565b9050919050565b60006020820190506122166000830184611eaf565b92915050565b600082825260208201905092915050565b600061223882612380565b915061224383612380565b9250827fffffffffffffffffffffffffffffffffffffffffffffffffffffffffffffffff03821115612278576122776123e4565b5b828201905092915050565b600061228e82612380565b915061229983612380565b9250826122a9576122a8612413565b5b828204905092915050565b60006122bf82612380565b91506122ca83612380565b9250817fffffffffffffffffffffffffffffffffffffffffffffffffffffffffffffffff0483118215151615612303576123026123e4565b5b828202905092915050565b600061231982612380565b915061232483612380565b925082821015612337576123366123e4565b5b828203905092915050565b600061234d82612360565b9050919050565b60008115159050919050565b600073ffffffffffffffffffffffffffffffffffffffff82169050919050565b6000819050919050565b60006123958261239c565b9050919050565b60006123a782612360565b9050919050565b60006123b9826123c0565b9050919050565b60006123cb82612360565b9050919050565b60006123dd82612380565b9050919050565b7f4e487b7100000000000000000000000000000000000000000000000000000000600052601160045260246000fd5b7f4e487b7100000000000000000000000000000000000000000000000000000000600052601260045260246000fd5b7f496e76616c69644e756d62657200000000000000000000000000000000000000600082015250565b7f4f776e61626c653a206e6577206f776e657220697320746865207a65726f206160008201527f6464726573730000000000000000000000000000000000000000000000000000602082015250565b7f70617274696369706174696f6e44617465456e64656400000000000000000000600082015250565b7f4e6f745374617274656400000000000000000000000000000000000000000000600082015250565b7f57696e6e65724e6f7443686f73656e0000000000000000000000000000000000600082015250565b7f416c726561647955736572000000000000000000000000000000000000000000600082015250565b7f57696e6e6572416c726561647953656c65637465640000000000000000000000600082015250565b7f4e6f74456e646564000000000000000000000000000000000000000000000000600082015250565b7f5355425f4552524f520000000000000000000000000000000000000000000000600082015250565b7f416c7265616479496e697469616c697a65640000000000000000000000000000600082015250565b7f496e76616c6964436f7374000000000000000000000000000000000000000000600082015250565b7f4f776e61626c653a2063616c6c6572206973206e6f7420746865206f776e6572600082015250565b7f436f6d706f756e644572726f7200000000000000000000000000000000000000600082015250565b7f4e6f745573657200000000000000000000000000000000000000000000000000600082015250565b7f416c7265616479436c61696d6564000000000000000000000000000000000000600082015250565b7f4144445f4552524f520000000000000000000000000000000000000000000000600082015250565b7f4d554c5f4552524f520000000000000000000000000000000000000000000000600082015250565b7f496e76616c696444617465000000000000000000000000000000000000000000600082015250565b61275381612342565b811461275e57600080fd5b50565b61276a81612380565b811461277557600080fd5b5056fea2646970667358221220be4fc7e677a42a67a5e86a1464891b1b8de1572a00f85d7b8720d2d24395843464736f6c63430008030033",
  "immutableReferences": {},
  "source": "// SPDX-License-Identifier: MIT\npragma solidity 0.8.3;\n\nimport \"./lib/Ownable.sol\";\nimport \"./lib/SafeMath.sol\";\nimport \"./interface/IERC20.sol\";\nimport \"./interface/ICompound.sol\";\nimport \"./interface/IPool.sol\";\n\ncontract Pool is Ownable, IPool {\n    using SafeMath for uint256;\n\n    // user details\n    struct User {\n        address user;\n        bool claimed;\n    }\n    User[] public usersList;\n    mapping (address => uint256) public usersIndex;\n\n    // pool details\n    uint256 public startDate;\n    uint256 public participationEndDate;\n    uint256 public endDate;\n    uint256 public poolCost;\n\n    //winner details\n    address public rewardedUser;\n    uint256 public winnersAmount;\n\n    IERC20 public poolToken;\n    ICompound public tokenCompound;\n\n    bool init;\n\n    function initialize(address token, address compound, uint256 _startDate, uint256 _participationEndDate, uint256 _endDate, uint256 _poolCost) override external {\n        require(!init, \"AlreadyInitialized\");\n        require(_endDate > _participationEndDate && _participationEndDate >_startDate, \"InvalidDate\");\n        require(_poolCost != 0, \"InvalidCost\");\n\n        poolToken = IERC20(token);\n        tokenCompound = ICompound(compound);\n\n        Ownable.setOwner(msg.sender);\n\n        if (compound != address(0)) {\n            poolToken.approve(compound, 115792089237316195423570985008687907853269984665640564039457584007913129639935);\n        }\n\n        startDate = _startDate;\n        participationEndDate = _participationEndDate;\n        endDate = _endDate;\n        poolCost = _poolCost;\n        init = true;\n    }\n\n    function play(address _user) onlyOwner override external {\n        require(block.timestamp >= startDate, \"NotStarted\");\n        require(block.timestamp <= participationEndDate, \"participationDateEnded\");\n        require(usersIndex[_user] == 0, \"AlreadyUser\");\n\n        poolToken.transferFrom(_user, address(this), poolCost);\n\n        if (address(tokenCompound) != address(0)) {\n            tokenCompound.mint(poolCost);\n        }\n\n        usersList.push(User(_user, false));\n        usersIndex[_user] = usersList.length;\n    }\n\n    function setWinner(uint256 _number) onlyOwner override external {\n        require(block.timestamp > endDate, \"NotEnded\");\n        require(rewardedUser == address(0), \"WinnerAlreadySelected\");\n        uint256 _usersLength = usersList.length;\n        require(_number < _usersLength, \"InvalidNumber\");\n\n        if (address(tokenCompound) != address(0)) {\n            require(0 == tokenCompound.redeem(tokenCompound.balanceOf(address(this))), \"CompoundError\");\n        }\n\n        User memory _user = usersList[_number];\n        rewardedUser = _user.user;\n        winnersAmount = (poolToken.balanceOf(address(this))).sub(poolCost.mul(_usersLength));\n\n    }\n\n    function claim(address _user) onlyOwner override external {\n        require(rewardedUser != address(0), \"WinnerNotChosen\");\n\n        uint256 _id = usersIndex[_user];\n        require(_id != 0, \"NotUser\");\n        _id = _id - 1;\n\n        User memory _member = usersList[_id];\n        require(!_member.claimed, \"AlreadyClaimed\");\n\n        if (_user == rewardedUser) {\n            poolToken.transfer(_user, poolCost.add(winnersAmount));\n        } else {\n            poolToken.transfer(_user, poolCost);\n        }\n        _member.claimed = true;\n        usersList[_id] = _member;\n    }\n\n    function getUsersListLength() override external view returns(uint256) {\n        return usersList.length;\n    }\n}",
  "sourcePath": "D:/Atticlab/poolit-contract/contracts/Pool.sol",
  "compiler": {
    "name": "solc",
    "version": "0.8.3+commit.8d00100c.Emscripten.clang"
  },
  "schemaVersion": "3.4.0",
  "updatedAt": "2021-05-11T08:56:16.703Z",
  "networkType": "ethereum",
  "devdoc": {
    "kind": "dev",
    "methods": {
      "owner()": {
        "details": "Returns the address of the current owner."
      },
      "renounceOwnership()": {
        "details": "Leaves the contract without owner. It will not be possible to call `onlyOwner` functions anymore. Can only be called by the current owner. NOTE: Renouncing ownership will leave the contract without an owner, thereby removing any functionality that is only available to the owner."
      },
      "transferOwnership(address)": {
        "details": "Transfers ownership of the contract to a new account (`newOwner`). Can only be called by the current owner."
      }
    },
    "version": 1
  },
  "userdoc": {
    "kind": "user",
    "methods": {},
    "version": 1
  }
}