{
  "contractName": "Pool",
  "abi": [
    {
      "inputs": [
        {
          "internalType": "address",
          "name": "",
          "type": "address"
        }
      ],
      "name": "balances",
      "outputs": [
        {
          "internalType": "uint256",
          "name": "",
          "type": "uint256"
        }
      ],
      "stateMutability": "view",
      "type": "function",
      "constant": true
    },
    {
      "inputs": [],
      "name": "bonus",
      "outputs": [
        {
          "internalType": "uint256",
          "name": "",
          "type": "uint256"
        }
      ],
      "stateMutability": "view",
      "type": "function",
      "constant": true
    },
    {
      "inputs": [],
      "name": "endDate",
      "outputs": [
        {
          "internalType": "uint256",
          "name": "",
          "type": "uint256"
        }
      ],
      "stateMutability": "view",
      "type": "function",
      "constant": true
    },
    {
      "inputs": [],
      "name": "isLottery",
      "outputs": [
        {
          "internalType": "bool",
          "name": "",
          "type": "bool"
        }
      ],
      "stateMutability": "view",
      "type": "function",
      "constant": true
    },
    {
      "inputs": [],
      "name": "liquidated",
      "outputs": [
        {
          "internalType": "bool",
          "name": "",
          "type": "bool"
        }
      ],
      "stateMutability": "view",
      "type": "function",
      "constant": true
    },
    {
      "inputs": [
        {
          "internalType": "uint256",
          "name": "",
          "type": "uint256"
        }
      ],
      "name": "participants",
      "outputs": [
        {
          "internalType": "address",
          "name": "",
          "type": "address"
        }
      ],
      "stateMutability": "view",
      "type": "function",
      "constant": true
    },
    {
      "inputs": [],
      "name": "participationAmount",
      "outputs": [
        {
          "internalType": "uint256",
          "name": "",
          "type": "uint256"
        }
      ],
      "stateMutability": "view",
      "type": "function",
      "constant": true
    },
    {
      "inputs": [],
      "name": "participationEndDate",
      "outputs": [
        {
          "internalType": "uint256",
          "name": "",
          "type": "uint256"
        }
      ],
      "stateMutability": "view",
      "type": "function",
      "constant": true
    },
    {
      "inputs": [],
      "name": "poolBalance",
      "outputs": [
        {
          "internalType": "uint256",
          "name": "",
          "type": "uint256"
        }
      ],
      "stateMutability": "view",
      "type": "function",
      "constant": true
    },
    {
      "inputs": [],
      "name": "poolToken",
      "outputs": [
        {
          "internalType": "contract IERC20",
          "name": "",
          "type": "address"
        }
      ],
      "stateMutability": "view",
      "type": "function",
      "constant": true
    },
    {
      "inputs": [],
      "name": "startDate",
      "outputs": [
        {
          "internalType": "uint256",
          "name": "",
          "type": "uint256"
        }
      ],
      "stateMutability": "view",
      "type": "function",
      "constant": true
    },
    {
      "inputs": [],
      "name": "tokenCompound",
      "outputs": [
        {
          "internalType": "contract ICompound",
          "name": "",
          "type": "address"
        }
      ],
      "stateMutability": "view",
      "type": "function",
      "constant": true
    },
    {
      "inputs": [],
      "name": "winner",
      "outputs": [
        {
          "internalType": "address",
          "name": "",
          "type": "address"
        }
      ],
      "stateMutability": "view",
      "type": "function",
      "constant": true
    },
    {
      "inputs": [],
      "name": "owner",
      "outputs": [
        {
          "internalType": "address",
          "name": "",
          "type": "address"
        }
      ],
      "stateMutability": "view",
      "type": "function",
      "constant": true
    },
    {
      "inputs": [
        {
          "internalType": "address",
          "name": "token_",
          "type": "address"
        },
        {
          "internalType": "address",
          "name": "compound_",
          "type": "address"
        },
        {
          "internalType": "uint256",
          "name": "startDate_",
          "type": "uint256"
        },
        {
          "internalType": "uint256",
          "name": "participationEndDate_",
          "type": "uint256"
        },
        {
          "internalType": "uint256",
          "name": "endDate_",
          "type": "uint256"
        },
        {
          "internalType": "uint256",
          "name": "participationAmount_",
          "type": "uint256"
        },
        {
          "internalType": "bool",
          "name": "isLottery_",
          "type": "bool"
        }
      ],
      "name": "initialize",
      "outputs": [],
      "stateMutability": "nonpayable",
      "type": "function"
    },
    {
      "inputs": [
        {
          "internalType": "address",
          "name": "user",
          "type": "address"
        }
      ],
      "name": "participate",
      "outputs": [],
      "stateMutability": "nonpayable",
      "type": "function"
    },
    {
      "inputs": [
        {
          "internalType": "uint256",
          "name": "index",
          "type": "uint256"
        }
      ],
      "name": "liquidateWithWinner",
      "outputs": [],
      "stateMutability": "nonpayable",
      "type": "function"
    },
    {
      "inputs": [],
      "name": "liquidate",
      "outputs": [],
      "stateMutability": "nonpayable",
      "type": "function"
    },
    {
      "inputs": [
        {
          "internalType": "address",
          "name": "user",
          "type": "address"
        }
      ],
      "name": "claim",
      "outputs": [],
      "stateMutability": "nonpayable",
      "type": "function"
    },
    {
      "inputs": [],
      "name": "participantsLength",
      "outputs": [
        {
          "internalType": "uint256",
          "name": "",
          "type": "uint256"
        }
      ],
      "stateMutability": "view",
      "type": "function",
      "constant": true
    }
  ],
  "bytecode": "0x608060405234801561001057600080fd5b506120c6806100206000396000f3fe608060405234801561001057600080fd5b506004361061016c5760003560e01c80636b19852c116100cd578063b91038c711610081578063cbdf382c11610066578063cbdf382c14610377578063d695601e14610395578063dfbf53ae146103b35761016c565b8063b91038c71461033d578063c24a0f8b146103595761016c565b80638da5cb5b116100b25780638da5cb5b146102e357806396365d4414610301578063b67de0081461031f5761016c565b80636b19852c146102a957806375b4d78c146102c55761016c565b806328a070251161012457806335c1d3491161010957806335c1d3491461023f578063401417731461026f5780634158506a1461028b5761016c565b806328a07025146102175780632dc2107f146102215761016c565b806323b98cde1161015557806323b98cde146101ab57806325698d89146101c957806327e235e3146101e75761016c565b80630b97bc86146101715780631e83409a1461018f575b600080fd5b6101796103d1565b6040516101869190611c0f565b60405180910390f35b6101a960048036038101906101a491906115f2565b6103d7565b005b6101b36105d4565b6040516101c091906119de565b60405180910390f35b6101d16105e7565b6040516101de91906119de565b60405180910390f35b61020160048036038101906101fc91906115f2565b6105fa565b60405161020e9190611c0f565b60405180910390f35b61021f610612565b005b61022961071a565b6040516102369190611c0f565b60405180910390f35b610259600480360381019061025491906116b9565b610720565b6040516102669190611963565b60405180910390f35b6102896004803603810190610284919061161b565b61075f565b005b610293610a85565b6040516102a09190611c0f565b60405180910390f35b6102c360048036038101906102be91906116b9565b610a91565b005b6102cd610d7f565b6040516102da9190611c0f565b60405180910390f35b6102eb610d85565b6040516102f89190611963565b60405180910390f35b610309610daf565b6040516103169190611c0f565b60405180910390f35b610327610db5565b60405161033491906119f9565b60405180910390f35b610357600480360381019061035291906115f2565b610ddb565b005b6103616111d8565b60405161036e9190611c0f565b60405180910390f35b61037f6111de565b60405161038c9190611a14565b60405180910390f35b61039d611204565b6040516103aa9190611c0f565b60405180910390f35b6103bb61120a565b6040516103c89190611963565b60405180910390f35b60025481565b3373ffffffffffffffffffffffffffffffffffffffff16600c60009054906101000a900473ffffffffffffffffffffffffffffffffffffffff1673ffffffffffffffffffffffffffffffffffffffff1614610467576040517f08c379a000000000000000000000000000000000000000000000000000000000815260040161045e90611baf565b60405180910390fd5b6000600160008373ffffffffffffffffffffffffffffffffffffffff1673ffffffffffffffffffffffffffffffffffffffff16815260200190815260200160002054905060008114156104ef576040517f08c379a00000000000000000000000000000000000000000000000000000000081526004016104e690611a4f565b60405180910390fd5b6000600160008473ffffffffffffffffffffffffffffffffffffffff1673ffffffffffffffffffffffffffffffffffffffff16815260200190815260200160002081905550600a60009054906101000a900473ffffffffffffffffffffffffffffffffffffffff1673ffffffffffffffffffffffffffffffffffffffff1663a9059cbb83600754846105819190611c3b565b6040518363ffffffff1660e01b815260040161059e9291906119b5565b600060405180830381600087803b1580156105b857600080fd5b505af11580156105cc573d6000803e3d6000fd5b505050505050565b600860009054906101000a900460ff1681565b600c60159054906101000a900460ff1681565b60016020528060005260406000206000915090505481565b3373ffffffffffffffffffffffffffffffffffffffff16600c60009054906101000a900473ffffffffffffffffffffffffffffffffffffffff1673ffffffffffffffffffffffffffffffffffffffff16146106a2576040517f08c379a000000000000000000000000000000000000000000000000000000000815260040161069990611baf565b60405180910390fd5b600c60159054906101000a900460ff16156106f2576040517f08c379a00000000000000000000000000000000000000000000000000000000081526004016106e990611b6f565b60405180910390fd5b6106fa611230565b600080549050600760008282546107119190611c91565b92505081905550565b60035481565b6000818154811061073057600080fd5b906000526020600020016000915054906101000a900473ffffffffffffffffffffffffffffffffffffffff1681565b600c60149054906101000a900460ff16156107af576040517f08c379a00000000000000000000000000000000000000000000000000000000081526004016107a690611b4f565b60405180910390fd5b83831180156107bd57508484115b6107fc576040517f08c379a00000000000000000000000000000000000000000000000000000000081526004016107f390611bcf565b60405180910390fd5b6000821415610840576040517f08c379a000000000000000000000000000000000000000000000000000000000815260040161083790611a8f565b60405180910390fd5b86600a60006101000a81548173ffffffffffffffffffffffffffffffffffffffff021916908373ffffffffffffffffffffffffffffffffffffffff16021790555085600b60006101000a81548173ffffffffffffffffffffffffffffffffffffffff021916908373ffffffffffffffffffffffffffffffffffffffff16021790555033600c60006101000a81548173ffffffffffffffffffffffffffffffffffffffff021916908373ffffffffffffffffffffffffffffffffffffffff160217905550600073ffffffffffffffffffffffffffffffffffffffff16600b60009054906101000a900473ffffffffffffffffffffffffffffffffffffffff1673ffffffffffffffffffffffffffffffffffffffff1614610a2b57600a60009054906101000a900473ffffffffffffffffffffffffffffffffffffffff1673ffffffffffffffffffffffffffffffffffffffff1663095ea7b3600b60009054906101000a900473ffffffffffffffffffffffffffffffffffffffff167fffffffffffffffffffffffffffffffffffffffffffffffffffffffffffffffff6040518363ffffffff1660e01b81526004016109f89291906119b5565b600060405180830381600087803b158015610a1257600080fd5b505af1158015610a26573d6000803e3d6000fd5b505050505b846002819055508360038190555082600481905550816005819055506001600c60146101000a81548160ff02191690831515021790555080600c60156101000a81548160ff02191690831515021790555050505050505050565b60008080549050905090565b3373ffffffffffffffffffffffffffffffffffffffff16600c60009054906101000a900473ffffffffffffffffffffffffffffffffffffffff1673ffffffffffffffffffffffffffffffffffffffff1614610b21576040517f08c379a0000000000000000000000000000000000000000000000000000000008152600401610b1890611baf565b60405180910390fd5b600c60159054906101000a900460ff16610b70576040517f08c379a0000000000000000000000000000000000000000000000000000000008152600401610b6790611b0f565b60405180910390fd5b600073ffffffffffffffffffffffffffffffffffffffff16600660009054906101000a900473ffffffffffffffffffffffffffffffffffffffff1673ffffffffffffffffffffffffffffffffffffffff1614610c01576040517f08c379a0000000000000000000000000000000000000000000000000000000008152600401610bf890611aef565b60405180910390fd5b600080805490509050808210610c4c576040517f08c379a0000000000000000000000000000000000000000000000000000000008152600401610c4390611a2f565b60405180910390fd5b610c54611230565b60008281548110610c8e577f4e487b7100000000000000000000000000000000000000000000000000000000600052603260045260246000fd5b9060005260206000200160009054906101000a900473ffffffffffffffffffffffffffffffffffffffff16600660006101000a81548173ffffffffffffffffffffffffffffffffffffffff021916908373ffffffffffffffffffffffffffffffffffffffff16021790555060075460016000600660009054906101000a900473ffffffffffffffffffffffffffffffffffffffff1673ffffffffffffffffffffffffffffffffffffffff1673ffffffffffffffffffffffffffffffffffffffff1681526020019081526020016000206000828254610d6c9190611c3b565b9250508190555060006007819055505050565b60075481565b6000600c60009054906101000a900473ffffffffffffffffffffffffffffffffffffffff16905090565b60095481565b600b60009054906101000a900473ffffffffffffffffffffffffffffffffffffffff1681565b3373ffffffffffffffffffffffffffffffffffffffff16600c60009054906101000a900473ffffffffffffffffffffffffffffffffffffffff1673ffffffffffffffffffffffffffffffffffffffff1614610e6b576040517f08c379a0000000000000000000000000000000000000000000000000000000008152600401610e6290611baf565b60405180910390fd5b600254421015610eb0576040517f08c379a0000000000000000000000000000000000000000000000000000000008152600401610ea790611aaf565b60405180910390fd5b600354421115610ef5576040517f08c379a0000000000000000000000000000000000000000000000000000000008152600401610eec90611a6f565b60405180910390fd5b6000600160008373ffffffffffffffffffffffffffffffffffffffff1673ffffffffffffffffffffffffffffffffffffffff1681526020019081526020016000205414610f77576040517f08c379a0000000000000000000000000000000000000000000000000000000008152600401610f6e90611acf565b60405180910390fd5b600a60009054906101000a900473ffffffffffffffffffffffffffffffffffffffff1673ffffffffffffffffffffffffffffffffffffffff166323b872dd82306005546040518463ffffffff1660e01b8152600401610fd89392919061197e565b600060405180830381600087803b158015610ff257600080fd5b505af1158015611006573d6000803e3d6000fd5b505050506005546009600082825461101e9190611c3b565b92505081905550600073ffffffffffffffffffffffffffffffffffffffff16600b60009054906101000a900473ffffffffffffffffffffffffffffffffffffffff1673ffffffffffffffffffffffffffffffffffffffff161461112c57600b60009054906101000a900473ffffffffffffffffffffffffffffffffffffffff1673ffffffffffffffffffffffffffffffffffffffff1663a0712d686005546040518263ffffffff1660e01b81526004016110d89190611c0f565b602060405180830381600087803b1580156110f257600080fd5b505af1158015611106573d6000803e3d6000fd5b505050506040513d601f19601f8201168201806040525081019061112a91906116e2565b505b6000819080600181540180825580915050600190039060005260206000200160009091909190916101000a81548173ffffffffffffffffffffffffffffffffffffffff021916908373ffffffffffffffffffffffffffffffffffffffff160217905550600554600160008373ffffffffffffffffffffffffffffffffffffffff1673ffffffffffffffffffffffffffffffffffffffff1681526020019081526020016000208190555050565b60045481565b600a60009054906101000a900473ffffffffffffffffffffffffffffffffffffffff1681565b60055481565b600660009054906101000a900473ffffffffffffffffffffffffffffffffffffffff1681565b6004544211611274576040517f08c379a000000000000000000000000000000000000000000000000000000000815260040161126b90611b2f565b60405180910390fd5b600860009054906101000a900460ff16156112c4576040517f08c379a00000000000000000000000000000000000000000000000000000000081526004016112bb90611bef565b60405180910390fd5b6001600860006101000a81548160ff021916908315150217905550600073ffffffffffffffffffffffffffffffffffffffff16600b60009054906101000a900473ffffffffffffffffffffffffffffffffffffffff1673ffffffffffffffffffffffffffffffffffffffff16146114de576000600b60009054906101000a900473ffffffffffffffffffffffffffffffffffffffff1673ffffffffffffffffffffffffffffffffffffffff166370a08231306040518263ffffffff1660e01b81526004016113929190611963565b60206040518083038186803b1580156113aa57600080fd5b505afa1580156113be573d6000803e3d6000fd5b505050506040513d601f19601f820116820180604052508101906113e291906116e2565b9050600081146114dc57600b60009054906101000a900473ffffffffffffffffffffffffffffffffffffffff1673ffffffffffffffffffffffffffffffffffffffff1663db006a75826040518263ffffffff1660e01b81526004016114479190611c0f565b602060405180830381600087803b15801561146157600080fd5b505af1158015611475573d6000803e3d6000fd5b505050506040513d601f19601f8201168201806040525081019061149991906116e2565b6000146114db576040517f08c379a00000000000000000000000000000000000000000000000000000000081526004016114d290611b8f565b60405180910390fd5b5b505b600954600a60009054906101000a900473ffffffffffffffffffffffffffffffffffffffff1673ffffffffffffffffffffffffffffffffffffffff166370a08231306040518263ffffffff1660e01b815260040161153c9190611963565b60206040518083038186803b15801561155457600080fd5b505afa158015611568573d6000803e3d6000fd5b505050506040513d601f19601f8201168201806040525081019061158c91906116e2565b6115969190611cc2565b600781905550565b6000813590506115ad8161204b565b92915050565b6000813590506115c281612062565b92915050565b6000813590506115d781612079565b92915050565b6000815190506115ec81612079565b92915050565b60006020828403121561160457600080fd5b60006116128482850161159e565b91505092915050565b600080600080600080600060e0888a03121561163657600080fd5b60006116448a828b0161159e565b97505060206116558a828b0161159e565b96505060406116668a828b016115c8565b95505060606116778a828b016115c8565b94505060806116888a828b016115c8565b93505060a06116998a828b016115c8565b92505060c06116aa8a828b016115b3565b91505092959891949750929550565b6000602082840312156116cb57600080fd5b60006116d9848285016115c8565b91505092915050565b6000602082840312156116f457600080fd5b6000611702848285016115dd565b91505092915050565b61171481611cf6565b82525050565b61172381611d08565b82525050565b61173281611d3e565b82525050565b61174181611d62565b82525050565b6000611754600c83611c2a565b915061175f82611de4565b602082019050919050565b6000611777601183611c2a565b915061178282611e0d565b602082019050919050565b600061179a601683611c2a565b91506117a582611e36565b602082019050919050565b60006117bd600d83611c2a565b91506117c882611e5f565b602082019050919050565b60006117e0600a83611c2a565b91506117eb82611e88565b602082019050919050565b6000611803600b83611c2a565b915061180e82611eb1565b602082019050919050565b6000611826601583611c2a565b915061183182611eda565b602082019050919050565b6000611849600a83611c2a565b915061185482611f03565b602082019050919050565b600061186c600883611c2a565b915061187782611f2c565b602082019050919050565b600061188f601283611c2a565b915061189a82611f55565b602082019050919050565b60006118b2600783611c2a565b91506118bd82611f7e565b602082019050919050565b60006118d5600d83611c2a565b91506118e082611fa7565b602082019050919050565b60006118f8600a83611c2a565b915061190382611fd0565b602082019050919050565b600061191b600b83611c2a565b915061192682611ff9565b602082019050919050565b600061193e600a83611c2a565b915061194982612022565b602082019050919050565b61195d81611d34565b82525050565b6000602082019050611978600083018461170b565b92915050565b6000606082019050611993600083018661170b565b6119a0602083018561170b565b6119ad6040830184611954565b949350505050565b60006040820190506119ca600083018561170b565b6119d76020830184611954565b9392505050565b60006020820190506119f3600083018461171a565b92915050565b6000602082019050611a0e6000830184611729565b92915050565b6000602082019050611a296000830184611738565b92915050565b60006020820190508181036000830152611a4881611747565b9050919050565b60006020820190508181036000830152611a688161176a565b9050919050565b60006020820190508181036000830152611a888161178d565b9050919050565b60006020820190508181036000830152611aa8816117b0565b9050919050565b60006020820190508181036000830152611ac8816117d3565b9050919050565b60006020820190508181036000830152611ae8816117f6565b9050919050565b60006020820190508181036000830152611b0881611819565b9050919050565b60006020820190508181036000830152611b288161183c565b9050919050565b60006020820190508181036000830152611b488161185f565b9050919050565b60006020820190508181036000830152611b6881611882565b9050919050565b60006020820190508181036000830152611b88816118a5565b9050919050565b60006020820190508181036000830152611ba8816118c8565b9050919050565b60006020820190508181036000830152611bc8816118eb565b9050919050565b60006020820190508181036000830152611be88161190e565b9050919050565b60006020820190508181036000830152611c0881611931565b9050919050565b6000602082019050611c246000830184611954565b92915050565b600082825260208201905092915050565b6000611c4682611d34565b9150611c5183611d34565b9250827fffffffffffffffffffffffffffffffffffffffffffffffffffffffffffffffff03821115611c8657611c85611d86565b5b828201905092915050565b6000611c9c82611d34565b9150611ca783611d34565b925082611cb757611cb6611db5565b5b828204905092915050565b6000611ccd82611d34565b9150611cd883611d34565b925082821015611ceb57611cea611d86565b5b828203905092915050565b6000611d0182611d14565b9050919050565b60008115159050919050565b600073ffffffffffffffffffffffffffffffffffffffff82169050919050565b6000819050919050565b6000611d4982611d50565b9050919050565b6000611d5b82611d14565b9050919050565b6000611d6d82611d74565b9050919050565b6000611d7f82611d14565b9050919050565b7f4e487b7100000000000000000000000000000000000000000000000000000000600052601160045260246000fd5b7f4e487b7100000000000000000000000000000000000000000000000000000000600052601260045260246000fd5b7f496e76616c6964496e6465780000000000000000000000000000000000000000600082015250565b7f4e6f7468696e67546f5769746864726177000000000000000000000000000000600082015250565b7f50617274696369706174696f6e44617465456e64656400000000000000000000600082015250565b7f496e76616c6964416d6f756e7400000000000000000000000000000000000000600082015250565b7f4e6f745374617274656400000000000000000000000000000000000000000000600082015250565b7f416c726561647955736572000000000000000000000000000000000000000000600082015250565b7f57696e6e6572416c726561647953656c65637465640000000000000000000000600082015250565b7f4e6f744c6f747465727900000000000000000000000000000000000000000000600082015250565b7f4e6f74456e646564000000000000000000000000000000000000000000000000600082015250565b7f416c7265616479496e697469616c697a65640000000000000000000000000000600082015250565b7f4c6f747465727900000000000000000000000000000000000000000000000000600082015250565b7f436f6d706f756e644572726f7200000000000000000000000000000000000000600082015250565b7f4e6f744f776e61626c6500000000000000000000000000000000000000000000600082015250565b7f496e76616c696444617465000000000000000000000000000000000000000000600082015250565b7f4c69717569646174656400000000000000000000000000000000000000000000600082015250565b61205481611cf6565b811461205f57600080fd5b50565b61206b81611d08565b811461207657600080fd5b50565b61208281611d34565b811461208d57600080fd5b5056fea2646970667358221220ea29f20cb04912dc88b73715ef861790f08bfc7aa0cd86c403382699054eb09764736f6c63430008040033",
  "immutableReferences": {},
  "source": "// SPDX-License-Identifier: MIT\npragma solidity 0.8.4;\n\nimport \"./interface/IERC20.sol\";\nimport \"./interface/ICompound.sol\";\nimport \"./interface/IPool.sol\";\n\ncontract Pool is IPool {\n    address[] public participants;\n    mapping (address => uint256) public balances;\n\n    uint256 private constant MAX_INT = 2**256 - 1;\n\n    // pool details\n    uint256 public startDate;\n    uint256 public participationEndDate;\n    uint256 public endDate;\n    uint256 public participationAmount;\n\n    // If set the pool is the lottery pool\n    address public winner;\n    uint256 public bonus;\n    bool public liquidated;\n\n    uint256 public poolBalance;\n\n    IERC20 public poolToken;\n    ICompound public tokenCompound;\n\n    address private _owner;\n\n    bool private initialized;\n    bool override public isLottery;\n\n    modifier onlyOwner() {\n        require(_owner == msg.sender, \"NotOwnable\");\n        _;\n    }\n\n    function owner() public view virtual returns (address) {\n        return _owner;\n    }\n\n    function initialize(address token_, address compound_, uint256 startDate_, uint256 participationEndDate_, \n        uint256 endDate_, uint256 participationAmount_, bool isLottery_) override external {\n        require(!initialized, \"AlreadyInitialized\");\n        require(endDate_ > participationEndDate_ && participationEndDate_ > startDate_, \"InvalidDate\");\n        require(participationAmount_ != 0, \"InvalidAmount\");\n\n        poolToken = IERC20(token_);\n        tokenCompound = ICompound(compound_);\n\n        _owner = msg.sender;\n\n        if (address(tokenCompound) != address(0)) {\n            poolToken.approve(address(tokenCompound), MAX_INT);\n        }\n\n        startDate = startDate_;\n        participationEndDate = participationEndDate_;\n        endDate = endDate_;\n        participationAmount = participationAmount_;\n        initialized = true;\n        isLottery = isLottery_; \n    }\n\n    function participate(address user) external onlyOwner override {\n        require(block.timestamp >= startDate, \"NotStarted\");\n        require(block.timestamp <= participationEndDate, \"ParticipationDateEnded\");\n        require(balances[user] == 0, \"AlreadyUser\");\n\n        poolToken.transferFrom(user, address(this), participationAmount);\n\n        poolBalance += participationAmount;\n\n        if (address(tokenCompound) != address(0)) {\n            tokenCompound.mint(participationAmount);\n        }\n\n        participants.push(user);\n        balances[user] = participationAmount;\n    }\n\n    function liquidateWithWinner(uint256 index) external onlyOwner override {\n        require(isLottery, \"NotLottery\");\n        require(winner == address(0), \"WinnerAlreadySelected\");\n        uint256 poolSize = participants.length;\n        require(index < poolSize, \"InvalidIndex\");\n\n        _liquidate();\n\n        // Give bonus to the winner\n        winner = participants[index];\n        balances[winner] += bonus;\n        bonus = 0;\n    }\n\n    function liquidate() external onlyOwner override {\n        require(!isLottery, \"Lottery\");\n\n        _liquidate();\n\n        // Split bonus among all the participants\n        bonus /= participants.length;\n    }\n\n    function _liquidate() private {\n        require(block.timestamp > endDate, \"NotEnded\");\n        require(!liquidated, \"Liquidated\");\n        \n        liquidated = true;\n\n        if (address(tokenCompound) != address(0)) {\n            uint256 compoundBalance = tokenCompound.balanceOf(address(this));\n            if (compoundBalance != 0) {\n                require(0 == tokenCompound.redeem(compoundBalance), \"CompoundError\");\n            }\n        }\n        bonus = poolToken.balanceOf(address(this)) - poolBalance;\n    }\n\n    function claim(address user) external onlyOwner override {\n        uint256 amount = balances[user];\n        require(amount != 0, \"NothingToWithdraw\");\n        balances[user] = 0;\n        poolToken.transfer(user, amount + bonus);\n    }\n\n    function participantsLength() external override view returns(uint256) {\n        return participants.length;\n    }\n}",
  "sourcePath": "D:/Atticlab/poolit-contract/contracts/Pool.sol",
  "compiler": {
    "name": "solc",
    "version": "0.8.4+commit.c7e474f2.Emscripten.clang"
  },
  "schemaVersion": "3.4.0",
  "updatedAt": "2021-05-21T11:21:21.397Z",
  "networkType": "ethereum",
  "devdoc": {
    "kind": "dev",
    "methods": {},
    "version": 1
  },
  "userdoc": {
    "kind": "user",
    "methods": {},
    "version": 1
  }
}