{
  "contractName": "SavingsPool",
  "abi": [
    {
      "inputs": [
        {
          "internalType": "address",
          "name": "",
          "type": "address"
        }
      ],
      "name": "balances",
      "outputs": [
        {
          "internalType": "uint256",
          "name": "",
          "type": "uint256"
        }
      ],
      "stateMutability": "view",
      "type": "function",
      "constant": true
    },
    {
      "inputs": [],
      "name": "beneficiary",
      "outputs": [
        {
          "internalType": "address",
          "name": "",
          "type": "address"
        }
      ],
      "stateMutability": "view",
      "type": "function",
      "constant": true
    },
    {
      "inputs": [],
      "name": "owner",
      "outputs": [
        {
          "internalType": "address",
          "name": "",
          "type": "address"
        }
      ],
      "stateMutability": "view",
      "type": "function",
      "constant": true
    },
    {
      "inputs": [
        {
          "internalType": "uint256",
          "name": "",
          "type": "uint256"
        }
      ],
      "name": "participants",
      "outputs": [
        {
          "internalType": "address",
          "name": "",
          "type": "address"
        }
      ],
      "stateMutability": "view",
      "type": "function",
      "constant": true
    },
    {
      "inputs": [],
      "name": "poolBalance",
      "outputs": [
        {
          "internalType": "uint256",
          "name": "",
          "type": "uint256"
        }
      ],
      "stateMutability": "view",
      "type": "function",
      "constant": true
    },
    {
      "inputs": [],
      "name": "poolToken",
      "outputs": [
        {
          "internalType": "contract ISimpleERC20",
          "name": "",
          "type": "address"
        }
      ],
      "stateMutability": "view",
      "type": "function",
      "constant": true
    },
    {
      "inputs": [],
      "name": "tokenCompound",
      "outputs": [
        {
          "internalType": "contract ICompound",
          "name": "",
          "type": "address"
        }
      ],
      "stateMutability": "view",
      "type": "function",
      "constant": true
    },
    {
      "inputs": [
        {
          "internalType": "address",
          "name": "beneficiary_",
          "type": "address"
        },
        {
          "internalType": "address",
          "name": "token_",
          "type": "address"
        },
        {
          "internalType": "address",
          "name": "compound_",
          "type": "address"
        }
      ],
      "name": "initialize",
      "outputs": [],
      "stateMutability": "nonpayable",
      "type": "function"
    },
    {
      "inputs": [
        {
          "internalType": "address",
          "name": "user",
          "type": "address"
        },
        {
          "internalType": "uint256",
          "name": "amount",
          "type": "uint256"
        }
      ],
      "name": "participate",
      "outputs": [],
      "stateMutability": "nonpayable",
      "type": "function"
    },
    {
      "inputs": [
        {
          "internalType": "address",
          "name": "user",
          "type": "address"
        }
      ],
      "name": "claim",
      "outputs": [],
      "stateMutability": "nonpayable",
      "type": "function"
    },
    {
      "inputs": [],
      "name": "participantsLength",
      "outputs": [
        {
          "internalType": "uint256",
          "name": "",
          "type": "uint256"
        }
      ],
      "stateMutability": "view",
      "type": "function",
      "constant": true
    }
  ],
  "bytecode": "0x608060405234801561001057600080fd5b506112a5806100206000396000f3fe608060405234801561001057600080fd5b50600436106100c95760003560e01c80638da5cb5b11610081578063b67de0081161005b578063b67de008146101de578063c0c53b8b146101fc578063cbdf382c14610218576100c9565b80638da5cb5b1461018657806396365d44146101a4578063b64afbe5146101c2576100c9565b806335c1d349116100b257806335c1d3491461011a57806338af3eed1461014a5780634158506a14610168576100c9565b80631e83409a146100ce57806327e235e3146100ea575b600080fd5b6100e860048036038101906100e39190610d69565b610236565b005b61010460048036038101906100ff9190610d69565b610691565b6040516101119190611068565b60405180910390f35b610134600480360381019061012f9190610e1d565b6106a9565b6040516101419190610f37565b60405180910390f35b6101526106e8565b60405161015f9190610f37565b60405180910390f35b61017061070e565b60405161017d9190611068565b60405180910390f35b61018e61071a565b60405161019b9190610f37565b60405180910390f35b6101ac610740565b6040516101b99190611068565b60405180910390f35b6101dc60048036038101906101d79190610de1565b610746565b005b6101e6610a42565b6040516101f39190610fb2565b60405180910390f35b61021660048036038101906102119190610d92565b610a68565b005b610220610d04565b60405161022d9190610fcd565b60405180910390f35b3373ffffffffffffffffffffffffffffffffffffffff16600560009054906101000a900473ffffffffffffffffffffffffffffffffffffffff1673ffffffffffffffffffffffffffffffffffffffff16146102c6576040517f08c379a00000000000000000000000000000000000000000000000000000000081526004016102bd90610fe8565b60405180910390fd5b600660009054906101000a900473ffffffffffffffffffffffffffffffffffffffff1673ffffffffffffffffffffffffffffffffffffffff168173ffffffffffffffffffffffffffffffffffffffff1614610356576040517f08c379a000000000000000000000000000000000000000000000000000000000815260040161034d90611048565b60405180910390fd5b600073ffffffffffffffffffffffffffffffffffffffff16600460009054906101000a900473ffffffffffffffffffffffffffffffffffffffff1673ffffffffffffffffffffffffffffffffffffffff1614610555576000600460009054906101000a900473ffffffffffffffffffffffffffffffffffffffff1673ffffffffffffffffffffffffffffffffffffffff166370a08231306040518263ffffffff1660e01b81526004016104099190610f37565b60206040518083038186803b15801561042157600080fd5b505afa158015610435573d6000803e3d6000fd5b505050506040513d601f19601f820116820180604052508101906104599190610e46565b90506000811461055357600460009054906101000a900473ffffffffffffffffffffffffffffffffffffffff1673ffffffffffffffffffffffffffffffffffffffff1663db006a75826040518263ffffffff1660e01b81526004016104be9190611068565b602060405180830381600087803b1580156104d857600080fd5b505af11580156104ec573d6000803e3d6000fd5b505050506040513d601f19601f820116820180604052508101906105109190610e46565b600014610552576040517f08c379a000000000000000000000000000000000000000000000000000000000815260040161054990611028565b60405180910390fd5b5b505b600360009054906101000a900473ffffffffffffffffffffffffffffffffffffffff1673ffffffffffffffffffffffffffffffffffffffff1663a9059cbb82600360009054906101000a900473ffffffffffffffffffffffffffffffffffffffff1673ffffffffffffffffffffffffffffffffffffffff166370a08231306040518263ffffffff1660e01b81526004016105ef9190610f37565b60206040518083038186803b15801561060757600080fd5b505afa15801561061b573d6000803e3d6000fd5b505050506040513d601f19601f8201168201806040525081019061063f9190610e46565b6040518363ffffffff1660e01b815260040161065c929190610f89565b600060405180830381600087803b15801561067657600080fd5b505af115801561068a573d6000803e3d6000fd5b5050505050565b60016020528060005260406000206000915090505481565b600081815481106106b957600080fd5b906000526020600020016000915054906101000a900473ffffffffffffffffffffffffffffffffffffffff1681565b600660009054906101000a900473ffffffffffffffffffffffffffffffffffffffff1681565b60008080549050905090565b600560009054906101000a900473ffffffffffffffffffffffffffffffffffffffff1681565b60025481565b3373ffffffffffffffffffffffffffffffffffffffff16600560009054906101000a900473ffffffffffffffffffffffffffffffffffffffff1673ffffffffffffffffffffffffffffffffffffffff16146107d6576040517f08c379a00000000000000000000000000000000000000000000000000000000081526004016107cd90610fe8565b60405180910390fd5b600360009054906101000a900473ffffffffffffffffffffffffffffffffffffffff1673ffffffffffffffffffffffffffffffffffffffff166323b872dd8330846040518463ffffffff1660e01b815260040161083593929190610f52565b600060405180830381600087803b15801561084f57600080fd5b505af1158015610863573d6000803e3d6000fd5b5050505080600260008282546108799190611094565b92505081905550600073ffffffffffffffffffffffffffffffffffffffff16600460009054906101000a900473ffffffffffffffffffffffffffffffffffffffff1673ffffffffffffffffffffffffffffffffffffffff161461098557600460009054906101000a900473ffffffffffffffffffffffffffffffffffffffff1673ffffffffffffffffffffffffffffffffffffffff1663a0712d68826040518263ffffffff1660e01b81526004016109319190611068565b602060405180830381600087803b15801561094b57600080fd5b505af115801561095f573d6000803e3d6000fd5b505050506040513d601f19601f820116820180604052508101906109839190610e46565b505b6000829080600181540180825580915050600190039060005260206000200160009091909190916101000a81548173ffffffffffffffffffffffffffffffffffffffff021916908373ffffffffffffffffffffffffffffffffffffffff16021790555080600160008473ffffffffffffffffffffffffffffffffffffffff1673ffffffffffffffffffffffffffffffffffffffff1681526020019081526020016000206000828254610a379190611094565b925050819055505050565b600460009054906101000a900473ffffffffffffffffffffffffffffffffffffffff1681565b600660149054906101000a900460ff1615610ab8576040517f08c379a0000000000000000000000000000000000000000000000000000000008152600401610aaf90611008565b60405180910390fd5b81600360006101000a81548173ffffffffffffffffffffffffffffffffffffffff021916908373ffffffffffffffffffffffffffffffffffffffff16021790555080600460006101000a81548173ffffffffffffffffffffffffffffffffffffffff021916908373ffffffffffffffffffffffffffffffffffffffff16021790555082600660006101000a81548173ffffffffffffffffffffffffffffffffffffffff021916908373ffffffffffffffffffffffffffffffffffffffff16021790555033600560006101000a81548173ffffffffffffffffffffffffffffffffffffffff021916908373ffffffffffffffffffffffffffffffffffffffff160217905550600073ffffffffffffffffffffffffffffffffffffffff16600460009054906101000a900473ffffffffffffffffffffffffffffffffffffffff1673ffffffffffffffffffffffffffffffffffffffff1614610ce457600360009054906101000a900473ffffffffffffffffffffffffffffffffffffffff1673ffffffffffffffffffffffffffffffffffffffff1663095ea7b3600460009054906101000a900473ffffffffffffffffffffffffffffffffffffffff167fffffffffffffffffffffffffffffffffffffffffffffffffffffffffffffffff6040518363ffffffff1660e01b8152600401610cb1929190610f89565b600060405180830381600087803b158015610ccb57600080fd5b505af1158015610cdf573d6000803e3d6000fd5b505050505b6001600660146101000a81548160ff021916908315150217905550505050565b600360009054906101000a900473ffffffffffffffffffffffffffffffffffffffff1681565b600081359050610d3981611241565b92915050565b600081359050610d4e81611258565b92915050565b600081519050610d6381611258565b92915050565b600060208284031215610d7b57600080fd5b6000610d8984828501610d2a565b91505092915050565b600080600060608486031215610da757600080fd5b6000610db586828701610d2a565b9350506020610dc686828701610d2a565b9250506040610dd786828701610d2a565b9150509250925092565b60008060408385031215610df457600080fd5b6000610e0285828601610d2a565b9250506020610e1385828601610d3f565b9150509250929050565b600060208284031215610e2f57600080fd5b6000610e3d84828501610d3f565b91505092915050565b600060208284031215610e5857600080fd5b6000610e6684828501610d54565b91505092915050565b610e78816110ea565b82525050565b610e8781611126565b82525050565b610e968161114a565b82525050565b6000610ea9600883611083565b9150610eb48261119d565b602082019050919050565b6000610ecc601283611083565b9150610ed7826111c6565b602082019050919050565b6000610eef600d83611083565b9150610efa826111ef565b602082019050919050565b6000610f12600e83611083565b9150610f1d82611218565b602082019050919050565b610f318161111c565b82525050565b6000602082019050610f4c6000830184610e6f565b92915050565b6000606082019050610f676000830186610e6f565b610f746020830185610e6f565b610f816040830184610f28565b949350505050565b6000604082019050610f9e6000830185610e6f565b610fab6020830184610f28565b9392505050565b6000602082019050610fc76000830184610e7e565b92915050565b6000602082019050610fe26000830184610e8d565b92915050565b6000602082019050818103600083015261100181610e9c565b9050919050565b6000602082019050818103600083015261102181610ebf565b9050919050565b6000602082019050818103600083015261104181610ee2565b9050919050565b6000602082019050818103600083015261106181610f05565b9050919050565b600060208201905061107d6000830184610f28565b92915050565b600082825260208201905092915050565b600061109f8261111c565b91506110aa8361111c565b9250827fffffffffffffffffffffffffffffffffffffffffffffffffffffffffffffffff038211156110df576110de61116e565b5b828201905092915050565b60006110f5826110fc565b9050919050565b600073ffffffffffffffffffffffffffffffffffffffff82169050919050565b6000819050919050565b600061113182611138565b9050919050565b6000611143826110fc565b9050919050565b60006111558261115c565b9050919050565b6000611167826110fc565b9050919050565b7f4e487b7100000000000000000000000000000000000000000000000000000000600052601160045260246000fd5b7f4e6f744f776e6572000000000000000000000000000000000000000000000000600082015250565b7f416c7265616479496e697469616c697a65640000000000000000000000000000600082015250565b7f436f6d706f756e644572726f7200000000000000000000000000000000000000600082015250565b7f4e6f7442656e6566696369617279000000000000000000000000000000000000600082015250565b61124a816110ea565b811461125557600080fd5b50565b6112618161111c565b811461126c57600080fd5b5056fea2646970667358221220ff49cac5f1a1408b7f89983d2823c2395491c957083f9c11326d70046417954a64736f6c63430008040033",
  "immutableReferences": {},
  "source": "// SPDX-License-Identifier: MIT\npragma solidity 0.8.4;\n\nimport \"./interface/ISimpleERC20.sol\";\nimport \"./interface/ICompound.sol\";\nimport \"./interface/ISavingsPool.sol\";\n\ncontract SavingsPool is ISavingsPool {\n    address[] public participants;\n    mapping (address => uint256) public balances;\n\n    uint256 private constant MAX_INT = 2**256 - 1;\n\n    uint256 public poolBalance;\n\n    ISimpleERC20 public poolToken;\n    ICompound public tokenCompound;\n\n    address public owner;\n    address public beneficiary;\n\n    bool private initialized;\n\n    modifier onlyOwner() {\n        require(owner == msg.sender, \"NotOwner\");\n        _;\n    }\n\n    function initialize(address beneficiary_, address token_, address compound_) override external {\n        require(!initialized, \"AlreadyInitialized\");\n\n        poolToken = ISimpleERC20(token_);\n        tokenCompound = ICompound(compound_);\n        beneficiary = beneficiary_;\n\n        owner = msg.sender;\n\n        if (address(tokenCompound) != address(0)) {\n            poolToken.approve(address(tokenCompound), MAX_INT);\n        }\n\n        initialized = true;\n    }\n\n    function participate(address user, uint256 amount) external onlyOwner override {\n        poolToken.transferFrom(user, address(this), amount);\n\n        poolBalance += amount;\n\n        if (address(tokenCompound) != address(0)) {\n            tokenCompound.mint(amount);\n        }\n\n        participants.push(user);\n        balances[user] += amount;\n    }\n\n    function claim(address user) external onlyOwner override {\n        require(user == beneficiary, \"NotBeneficiary\");\n\n        // Liquidate everything\n        if (address(tokenCompound) != address(0)) {\n            uint256 compoundBalance = tokenCompound.balanceOf(address(this));\n            if (compoundBalance != 0) {\n                require(0 == tokenCompound.redeem(compoundBalance), \"CompoundError\");\n            }\n        }\n        poolToken.transfer(user, poolToken.balanceOf(address(this)));\n    }\n\n    function participantsLength() external view returns(uint256) {\n        return participants.length;\n    }\n}",
  "sourcePath": "D:/Atticlab/pool-savings/contracts/SavingsPool.sol",
  "compiler": {
    "name": "solc",
    "version": "0.8.4+commit.c7e474f2.Emscripten.clang"
  },
  "schemaVersion": "3.4.0",
  "updatedAt": "2021-06-14T12:34:56.531Z",
  "networkType": "ethereum",
  "devdoc": {
    "kind": "dev",
    "methods": {},
    "version": 1
  },
  "userdoc": {
    "kind": "user",
    "methods": {},
    "version": 1
  }
}