{
  "contractName": "SavingsPoolFactory",
  "abi": [
    {
      "inputs": [
        {
          "internalType": "address",
          "name": "poolToken_",
          "type": "address"
        },
        {
          "internalType": "address",
          "name": "tokenCompound_",
          "type": "address"
        },
        {
          "internalType": "address",
          "name": "poolImplementation_",
          "type": "address"
        }
      ],
      "stateMutability": "nonpayable",
      "type": "constructor"
    },
    {
      "anonymous": false,
      "inputs": [
        {
          "indexed": false,
          "internalType": "address",
          "name": "pool",
          "type": "address"
        }
      ],
      "name": "SavingsPoolCreated",
      "type": "event"
    },
    {
      "inputs": [],
      "name": "poolImplementation",
      "outputs": [
        {
          "internalType": "address",
          "name": "",
          "type": "address"
        }
      ],
      "stateMutability": "view",
      "type": "function",
      "constant": true
    },
    {
      "inputs": [],
      "name": "poolToken",
      "outputs": [
        {
          "internalType": "address",
          "name": "",
          "type": "address"
        }
      ],
      "stateMutability": "view",
      "type": "function",
      "constant": true
    },
    {
      "inputs": [
        {
          "internalType": "uint256",
          "name": "",
          "type": "uint256"
        }
      ],
      "name": "registry",
      "outputs": [
        {
          "internalType": "address",
          "name": "",
          "type": "address"
        }
      ],
      "stateMutability": "view",
      "type": "function",
      "constant": true
    },
    {
      "inputs": [],
      "name": "tokenCompound",
      "outputs": [
        {
          "internalType": "address",
          "name": "",
          "type": "address"
        }
      ],
      "stateMutability": "view",
      "type": "function",
      "constant": true
    },
    {
      "inputs": [],
      "name": "createPool",
      "outputs": [],
      "stateMutability": "nonpayable",
      "type": "function"
    },
    {
      "inputs": [],
      "name": "registryLength",
      "outputs": [
        {
          "internalType": "uint256",
          "name": "",
          "type": "uint256"
        }
      ],
      "stateMutability": "view",
      "type": "function",
      "constant": true
    },
    {
      "inputs": [
        {
          "internalType": "address",
          "name": "beneficiary",
          "type": "address"
        }
      ],
      "name": "userPoolsLength",
      "outputs": [
        {
          "internalType": "uint256",
          "name": "",
          "type": "uint256"
        }
      ],
      "stateMutability": "view",
      "type": "function",
      "constant": true
    },
    {
      "inputs": [
        {
          "internalType": "address",
          "name": "beneficiary",
          "type": "address"
        },
        {
          "internalType": "uint256",
          "name": "index",
          "type": "uint256"
        }
      ],
      "name": "userPool",
      "outputs": [
        {
          "internalType": "address",
          "name": "",
          "type": "address"
        }
      ],
      "stateMutability": "view",
      "type": "function",
      "constant": true
    },
    {
      "inputs": [
        {
          "internalType": "address",
          "name": "pool",
          "type": "address"
        },
        {
          "internalType": "uint256",
          "name": "amount",
          "type": "uint256"
        }
      ],
      "name": "participate",
      "outputs": [],
      "stateMutability": "nonpayable",
      "type": "function"
    },
    {
      "inputs": [
        {
          "internalType": "address",
          "name": "pool",
          "type": "address"
        }
      ],
      "name": "claim",
      "outputs": [],
      "stateMutability": "nonpayable",
      "type": "function"
    }
  ],
  "bytecode": "0x608060405234801561001057600080fd5b50604051610bd3380380610bd383398181016040528101906100329190610111565b826000806101000a81548173ffffffffffffffffffffffffffffffffffffffff021916908373ffffffffffffffffffffffffffffffffffffffff16021790555081600160006101000a81548173ffffffffffffffffffffffffffffffffffffffff021916908373ffffffffffffffffffffffffffffffffffffffff16021790555080600260006101000a81548173ffffffffffffffffffffffffffffffffffffffff021916908373ffffffffffffffffffffffffffffffffffffffff1602179055505050506101a9565b60008151905061010b81610192565b92915050565b60008060006060848603121561012657600080fd5b6000610134868287016100fc565b9350506020610145868287016100fc565b9250506040610156868287016100fc565b9150509250925092565b600061016b82610172565b9050919050565b600073ffffffffffffffffffffffffffffffffffffffff82169050919050565b61019b81610160565b81146101a657600080fd5b50565b610a1b806101b86000396000f3fe608060405234801561001057600080fd5b50600436106100be5760003560e01c8063b64afbe511610076578063cbdf382c1161005b578063cbdf382c146101a1578063cefa7799146101bf578063d22baa40146101dd576100be565b8063b64afbe514610167578063b67de00814610183576100be565b80635893253c116100a75780635893253c146100fd57806363feea941461012d5780639a06b1131461015d576100be565b806318e7c3c0146100c35780631e83409a146100e1575b600080fd5b6100cb61020d565b6040516100d89190610926565b60405180910390f35b6100fb60048036038101906100f691906107bc565b61021a565b005b61011760048036038101906101129190610821565b610288565b604051610124919061088b565b60405180910390f35b610147600480360381019061014291906107e5565b6102c7565b604051610154919061088b565b60405180910390f35b610165610373565b005b610181600480360381019061017c91906107e5565b610590565b005b61018b610601565b604051610198919061088b565b60405180910390f35b6101a9610627565b6040516101b6919061088b565b60405180910390f35b6101c761064b565b6040516101d4919061088b565b60405180910390f35b6101f760048036038101906101f291906107bc565b610671565b6040516102049190610926565b60405180910390f35b6000600380549050905090565b8073ffffffffffffffffffffffffffffffffffffffff16631e83409a336040518263ffffffff1660e01b8152600401610253919061088b565b600060405180830381600087803b15801561026d57600080fd5b505af1158015610281573d6000803e3d6000fd5b5050505050565b6003818154811061029857600080fd5b906000526020600020016000915054906101000a900473ffffffffffffffffffffffffffffffffffffffff1681565b6000600460008473ffffffffffffffffffffffffffffffffffffffff1673ffffffffffffffffffffffffffffffffffffffff1681526020019081526020016000208281548110610340577f4e487b7100000000000000000000000000000000000000000000000000000000600052603260045260246000fd5b9060005260206000200160009054906101000a900473ffffffffffffffffffffffffffffffffffffffff16905092915050565b60006103a0600260009054906101000a900473ffffffffffffffffffffffffffffffffffffffff166106bd565b90508073ffffffffffffffffffffffffffffffffffffffff1663c0c53b8b3360008054906101000a900473ffffffffffffffffffffffffffffffffffffffff16600160009054906101000a900473ffffffffffffffffffffffffffffffffffffffff166040518463ffffffff1660e01b8152600401610421939291906108a6565b600060405180830381600087803b15801561043b57600080fd5b505af115801561044f573d6000803e3d6000fd5b505050506003819080600181540180825580915050600190039060005260206000200160009091909190916101000a81548173ffffffffffffffffffffffffffffffffffffffff021916908373ffffffffffffffffffffffffffffffffffffffff160217905550600460003373ffffffffffffffffffffffffffffffffffffffff1673ffffffffffffffffffffffffffffffffffffffff168152602001908152602001600020819080600181540180825580915050600190039060005260206000200160009091909190916101000a81548173ffffffffffffffffffffffffffffffffffffffff021916908373ffffffffffffffffffffffffffffffffffffffff1602179055507fcb5dded433594e70ff2b327b1bb03ba3aa0e95ce6e1ddd6d309483fc4bbdfa9f81604051610585919061088b565b60405180910390a150565b8173ffffffffffffffffffffffffffffffffffffffff1663b64afbe533836040518363ffffffff1660e01b81526004016105cb9291906108dd565b600060405180830381600087803b1580156105e557600080fd5b505af11580156105f9573d6000803e3d6000fd5b505050505050565b600160009054906101000a900473ffffffffffffffffffffffffffffffffffffffff1681565b60008054906101000a900473ffffffffffffffffffffffffffffffffffffffff1681565b600260009054906101000a900473ffffffffffffffffffffffffffffffffffffffff1681565b6000600460008373ffffffffffffffffffffffffffffffffffffffff1673ffffffffffffffffffffffffffffffffffffffff168152602001908152602001600020805490509050919050565b60006040517f3d602d80600a3d3981f3363d3d373d3d3d363d7300000000000000000000000081528260601b60148201527f5af43d82803e903d91602b57fd5bf3000000000000000000000000000000000060288201526037816000f0915050600073ffffffffffffffffffffffffffffffffffffffff168173ffffffffffffffffffffffffffffffffffffffff16141561078d576040517f08c379a000000000000000000000000000000000000000000000000000000000815260040161078490610906565b60405180910390fd5b919050565b6000813590506107a1816109b7565b92915050565b6000813590506107b6816109ce565b92915050565b6000602082840312156107ce57600080fd5b60006107dc84828501610792565b91505092915050565b600080604083850312156107f857600080fd5b600061080685828601610792565b9250506020610817858286016107a7565b9150509250929050565b60006020828403121561083357600080fd5b6000610841848285016107a7565b91505092915050565b61085381610952565b82525050565b6000610866601683610941565b91506108718261098e565b602082019050919050565b61088581610984565b82525050565b60006020820190506108a0600083018461084a565b92915050565b60006060820190506108bb600083018661084a565b6108c8602083018561084a565b6108d5604083018461084a565b949350505050565b60006040820190506108f2600083018561084a565b6108ff602083018461087c565b9392505050565b6000602082019050818103600083015261091f81610859565b9050919050565b600060208201905061093b600083018461087c565b92915050565b600082825260208201905092915050565b600061095d82610964565b9050919050565b600073ffffffffffffffffffffffffffffffffffffffff82169050919050565b6000819050919050565b7f455243313136373a20637265617465206661696c656400000000000000000000600082015250565b6109c081610952565b81146109cb57600080fd5b50565b6109d781610984565b81146109e257600080fd5b5056fea2646970667358221220a6d6fa06690fa5a961ca21e9d7112d64064778685c4e14fa69c8313a2013450764736f6c63430008040033",
  "immutableReferences": {},
  "source": "// SPDX-License-Identifier: MIT\npragma solidity 0.8.4;\n\nimport \"@openzeppelin/contracts/proxy/Clones.sol\";\nimport \"./interface/ISavingsPool.sol\";\n\ncontract SavingsPoolFactory {\n\n    event SavingsPoolCreated(address pool);\n\n    address public poolToken;\n    address public tokenCompound;\n    address public poolImplementation;\n\n    address[] public registry;\n    mapping(address=>address[]) private _userPools;\n\n    constructor(address poolToken_, address tokenCompound_, address poolImplementation_) {\n        poolToken = poolToken_;\n        tokenCompound = tokenCompound_;\n        poolImplementation = poolImplementation_;\n    }\n\n    function createPool() external {\n        address pool = Clones.clone(poolImplementation);\n        ISavingsPool(pool).initialize(msg.sender, poolToken, tokenCompound);\n        registry.push(pool);\n        _userPools[msg.sender].push(pool);\n        emit SavingsPoolCreated(pool);\n    }\n\n    function registryLength() external view returns (uint256) {\n        return registry.length;\n    }\n\n    function userPoolsLength(address beneficiary) external view returns (uint256) {\n        return _userPools[beneficiary].length;\n    }\n\n    function userPool(address beneficiary, uint256 index) external view returns (address) {\n        return _userPools[beneficiary][index];\n    }\n\n    function participate(address pool, uint256 amount) external {\n        ISavingsPool(pool).participate(msg.sender, amount);\n    }\n\n    function claim(address pool) external {\n        ISavingsPool(pool).claim(msg.sender);\n    }\n}",
  "sourcePath": "D:/Atticlab/pool-savings/contracts/SavingsPoolFactory.sol",
  "compiler": {
    "name": "solc",
    "version": "0.8.4+commit.c7e474f2.Emscripten.clang"
  },
  "schemaVersion": "3.4.0",
  "updatedAt": "2021-06-14T12:34:56.518Z",
  "networkType": "ethereum",
  "devdoc": {
    "kind": "dev",
    "methods": {},
    "version": 1
  },
  "userdoc": {
    "kind": "user",
    "methods": {},
    "version": 1
  }
}